{
  "contractName": "DroneToken",
  "abi": [
    {
      "inputs": [
        {
          "internalType": "string",
          "name": "name_",
          "type": "string"
        },
        {
          "internalType": "string",
          "name": "symbol_",
          "type": "string"
        }
      ],
      "stateMutability": "nonpayable",
      "type": "constructor"
    },
    {
      "anonymous": false,
      "inputs": [
        {
          "indexed": true,
          "internalType": "address",
          "name": "owner",
          "type": "address"
        },
        {
          "indexed": true,
          "internalType": "address",
          "name": "approved",
          "type": "address"
        },
        {
          "indexed": true,
          "internalType": "uint256",
          "name": "tokenId",
          "type": "uint256"
        }
      ],
      "name": "Approval",
      "type": "event"
    },
    {
      "anonymous": false,
      "inputs": [
        {
          "indexed": true,
          "internalType": "address",
          "name": "owner",
          "type": "address"
        },
        {
          "indexed": true,
          "internalType": "address",
          "name": "operator",
          "type": "address"
        },
        {
          "indexed": false,
          "internalType": "bool",
          "name": "approved",
          "type": "bool"
        }
      ],
      "name": "ApprovalForAll",
      "type": "event"
    },
    {
      "anonymous": false,
      "inputs": [
        {
          "indexed": true,
          "internalType": "address",
          "name": "from",
          "type": "address"
        },
        {
          "indexed": true,
          "internalType": "address",
          "name": "to",
          "type": "address"
        },
        {
          "indexed": true,
          "internalType": "uint256",
          "name": "tokenId",
          "type": "uint256"
        }
      ],
      "name": "Transfer",
      "type": "event"
    },
    {
      "anonymous": false,
      "inputs": [
        {
          "indexed": false,
          "internalType": "uint256",
          "name": "droneId",
          "type": "uint256"
        },
        {
          "indexed": false,
          "internalType": "address",
          "name": "to",
          "type": "address"
        },
        {
          "indexed": false,
          "internalType": "address",
          "name": "me",
          "type": "address"
        }
      ],
      "name": "mintDrone",
      "type": "event"
    },
    {
      "inputs": [
        {
          "internalType": "address",
          "name": "to",
          "type": "address"
        },
        {
          "internalType": "uint256",
          "name": "tokenId",
          "type": "uint256"
        }
      ],
      "name": "approve",
      "outputs": [],
      "stateMutability": "nonpayable",
      "type": "function"
    },
    {
      "inputs": [
        {
          "internalType": "address",
          "name": "owner",
          "type": "address"
        }
      ],
      "name": "balanceOf",
      "outputs": [
        {
          "internalType": "uint256",
          "name": "",
          "type": "uint256"
        }
      ],
      "stateMutability": "view",
      "type": "function",
      "constant": true
    },
    {
      "inputs": [
        {
          "internalType": "uint256",
          "name": "",
          "type": "uint256"
        }
      ],
      "name": "droneList",
      "outputs": [
        {
          "internalType": "uint256",
          "name": "minimumHeight",
          "type": "uint256"
        },
        {
          "internalType": "uint256",
          "name": "maximumHeight",
          "type": "uint256"
        },
        {
          "internalType": "uint256",
          "name": "cost",
          "type": "uint256"
        },
        {
          "internalType": "uint256",
          "name": "pesticide",
          "type": "uint256"
        }
      ],
      "stateMutability": "view",
      "type": "function",
      "constant": true
    },
    {
      "inputs": [
        {
          "internalType": "uint256",
          "name": "tokenId",
          "type": "uint256"
        }
      ],
      "name": "getApproved",
      "outputs": [
        {
          "internalType": "address",
          "name": "",
          "type": "address"
        }
      ],
      "stateMutability": "view",
      "type": "function",
      "constant": true
    },
    {
      "inputs": [
        {
          "internalType": "address",
          "name": "owner",
          "type": "address"
        },
        {
          "internalType": "address",
          "name": "operator",
          "type": "address"
        }
      ],
      "name": "isApprovedForAll",
      "outputs": [
        {
          "internalType": "bool",
          "name": "",
          "type": "bool"
        }
      ],
      "stateMutability": "view",
      "type": "function",
      "constant": true
    },
    {
      "inputs": [],
      "name": "name",
      "outputs": [
        {
          "internalType": "string",
          "name": "",
          "type": "string"
        }
      ],
      "stateMutability": "view",
      "type": "function",
      "constant": true
    },
    {
      "inputs": [],
      "name": "owner",
      "outputs": [
        {
          "internalType": "address",
          "name": "",
          "type": "address"
        }
      ],
      "stateMutability": "view",
      "type": "function",
      "constant": true
    },
    {
      "inputs": [
        {
          "internalType": "uint256",
          "name": "tokenId",
          "type": "uint256"
        }
      ],
      "name": "ownerOf",
      "outputs": [
        {
          "internalType": "address",
          "name": "",
          "type": "address"
        }
      ],
      "stateMutability": "view",
      "type": "function",
      "constant": true
    },
    {
      "inputs": [
        {
          "internalType": "address",
          "name": "from",
          "type": "address"
        },
        {
          "internalType": "address",
          "name": "to",
          "type": "address"
        },
        {
          "internalType": "uint256",
          "name": "tokenId",
          "type": "uint256"
        }
      ],
      "name": "safeTransferFrom",
      "outputs": [],
      "stateMutability": "nonpayable",
      "type": "function"
    },
    {
      "inputs": [
        {
          "internalType": "address",
          "name": "from",
          "type": "address"
        },
        {
          "internalType": "address",
          "name": "to",
          "type": "address"
        },
        {
          "internalType": "uint256",
          "name": "tokenId",
          "type": "uint256"
        },
        {
          "internalType": "bytes",
          "name": "_data",
          "type": "bytes"
        }
      ],
      "name": "safeTransferFrom",
      "outputs": [],
      "stateMutability": "nonpayable",
      "type": "function"
    },
    {
      "inputs": [
        {
          "internalType": "address",
          "name": "operator",
          "type": "address"
        },
        {
          "internalType": "bool",
          "name": "approved",
          "type": "bool"
        }
      ],
      "name": "setApprovalForAll",
      "outputs": [],
      "stateMutability": "nonpayable",
      "type": "function"
    },
    {
      "inputs": [],
      "name": "symbol",
      "outputs": [
        {
          "internalType": "string",
          "name": "",
          "type": "string"
        }
      ],
      "stateMutability": "view",
      "type": "function",
      "constant": true
    },
    {
      "inputs": [
        {
          "internalType": "uint256",
          "name": "index",
          "type": "uint256"
        }
      ],
      "name": "tokenByIndex",
      "outputs": [
        {
          "internalType": "uint256",
          "name": "",
          "type": "uint256"
        }
      ],
      "stateMutability": "view",
      "type": "function",
      "constant": true
    },
    {
      "inputs": [
        {
          "internalType": "address",
          "name": "owner",
          "type": "address"
        },
        {
          "internalType": "uint256",
          "name": "index",
          "type": "uint256"
        }
      ],
      "name": "tokenOfOwnerByIndex",
      "outputs": [
        {
          "internalType": "uint256",
          "name": "",
          "type": "uint256"
        }
      ],
      "stateMutability": "view",
      "type": "function",
      "constant": true
    },
    {
      "inputs": [
        {
          "internalType": "uint256",
          "name": "tokenId",
          "type": "uint256"
        }
      ],
      "name": "tokenURI",
      "outputs": [
        {
          "internalType": "string",
          "name": "",
          "type": "string"
        }
      ],
      "stateMutability": "view",
      "type": "function",
      "constant": true
    },
    {
      "inputs": [],
      "name": "totalSupply",
      "outputs": [
        {
          "internalType": "uint256",
          "name": "",
          "type": "uint256"
        }
      ],
      "stateMutability": "view",
      "type": "function",
      "constant": true
    },
    {
      "inputs": [
        {
          "internalType": "address",
          "name": "from",
          "type": "address"
        },
        {
          "internalType": "address",
          "name": "to",
          "type": "address"
        },
        {
          "internalType": "uint256",
          "name": "tokenId",
          "type": "uint256"
        }
      ],
      "name": "transferFrom",
      "outputs": [],
      "stateMutability": "nonpayable",
      "type": "function"
    },
    {
      "inputs": [
        {
          "internalType": "address",
          "name": "newOwner",
          "type": "address"
        }
      ],
      "name": "transferOwnership",
      "outputs": [],
      "stateMutability": "nonpayable",
      "type": "function"
    },
    {
      "inputs": [
        {
          "internalType": "address",
          "name": "_owner",
          "type": "address"
        },
        {
          "internalType": "uint256",
          "name": "_minimumHeight",
          "type": "uint256"
        },
        {
          "internalType": "uint256",
          "name": "_maximumHeight",
          "type": "uint256"
        },
        {
          "internalType": "uint256",
          "name": "_cost",
          "type": "uint256"
        },
        {
          "internalType": "uint256",
          "name": "_pesticide",
          "type": "uint256"
        }
      ],
      "name": "mint",
      "outputs": [
        {
          "internalType": "uint256",
          "name": "result",
          "type": "uint256"
        }
      ],
      "stateMutability": "nonpayable",
      "type": "function"
    },
    {
      "inputs": [],
      "name": "setLastDroneTokenId",
      "outputs": [],
      "stateMutability": "nonpayable",
      "type": "function"
    },
    {
      "inputs": [],
      "name": "getLastDroneTokenId",
      "outputs": [
        {
          "internalType": "uint256",
          "name": "result",
          "type": "uint256"
        }
      ],
      "stateMutability": "view",
      "type": "function",
      "constant": true
    },
    {
      "inputs": [
        {
          "internalType": "uint256",
          "name": "droneId",
          "type": "uint256"
        }
      ],
      "name": "getMinimumHeight",
      "outputs": [
        {
          "internalType": "uint256",
          "name": "minimumHeight",
          "type": "uint256"
        }
      ],
      "stateMutability": "view",
      "type": "function",
      "constant": true
    },
    {
      "inputs": [
        {
          "internalType": "uint256",
          "name": "droneId",
          "type": "uint256"
        }
      ],
      "name": "getMaximumHeight",
      "outputs": [
        {
          "internalType": "uint256",
          "name": "maximumHeight",
          "type": "uint256"
        }
      ],
      "stateMutability": "view",
      "type": "function",
      "constant": true
    },
    {
      "inputs": [
        {
          "internalType": "uint256",
          "name": "droneId",
          "type": "uint256"
        }
      ],
      "name": "getCost",
      "outputs": [
        {
          "internalType": "uint256",
          "name": "cost",
          "type": "uint256"
        }
      ],
      "stateMutability": "view",
      "type": "function",
      "constant": true
    },
    {
      "inputs": [
        {
          "internalType": "uint256",
          "name": "droneId",
          "type": "uint256"
        }
      ],
      "name": "getPesticide",
      "outputs": [
        {
          "internalType": "uint256",
          "name": "pesticide",
          "type": "uint256"
        }
      ],
      "stateMutability": "view",
      "type": "function",
      "constant": true
    },
    {
      "inputs": [
        {
          "internalType": "bytes4",
          "name": "interfaceId",
          "type": "bytes4"
        }
      ],
      "name": "supportsInterface",
      "outputs": [
        {
          "internalType": "bool",
          "name": "",
          "type": "bool"
        }
      ],
      "stateMutability": "view",
      "type": "function",
      "constant": true
    }
  ],
  "bytecode": "0x60806040526001600b553480156200001657600080fd5b50604051620038c8380380620038c883398181016040528101906200003c9190620001e9565b8181816000908051906020019062000056929190620000bb565b5080600190805190602001906200006f929190620000bb565b50505033600a60006101000a81548173ffffffffffffffffffffffffffffffffffffffff021916908373ffffffffffffffffffffffffffffffffffffffff1602179055505050620003f2565b828054620000c99062000303565b90600052602060002090601f016020900481019282620000ed576000855562000139565b82601f106200010857805160ff191683800117855562000139565b8280016001018555821562000139579182015b82811115620001385782518255916020019190600101906200011b565b5b5090506200014891906200014c565b5090565b5b80821115620001675760008160009055506001016200014d565b5090565b6000620001826200017c8462000297565b6200026e565b905082815260208101848484011115620001a157620001a0620003d2565b5b620001ae848285620002cd565b509392505050565b600082601f830112620001ce57620001cd620003cd565b5b8151620001e08482602086016200016b565b91505092915050565b60008060408385031215620002035762000202620003dc565b5b600083015167ffffffffffffffff811115620002245762000223620003d7565b5b6200023285828601620001b6565b925050602083015167ffffffffffffffff811115620002565762000255620003d7565b5b6200026485828601620001b6565b9150509250929050565b60006200027a6200028d565b905062000288828262000339565b919050565b6000604051905090565b600067ffffffffffffffff821115620002b557620002b46200039e565b5b620002c082620003e1565b9050602081019050919050565b60005b83811015620002ed578082015181840152602081019050620002d0565b83811115620002fd576000848401525b50505050565b600060028204905060018216806200031c57607f821691505b602082108114156200033357620003326200036f565b5b50919050565b6200034482620003e1565b810181811067ffffffffffffffff821117156200036657620003656200039e565b5b80604052505050565b7f4e487b7100000000000000000000000000000000000000000000000000000000600052602260045260246000fd5b7f4e487b7100000000000000000000000000000000000000000000000000000000600052604160045260246000fd5b600080fd5b600080fd5b600080fd5b600080fd5b6000601f19601f8301169050919050565b6134c680620004026000396000f3fe608060405234801561001057600080fd5b506004361061018e5760003560e01c806370d11225116100de578063bb49e0c911610097578063e83199e811610071578063e83199e8146104d2578063e985e9c514610502578063f2fde38b14610532578063f92883a21461054e5761018e565b8063bb49e0c91461047a578063c87b56dd14610484578063df9b2ff5146104b45761018e565b806370d11225146103a65780638da5cb5b146103d657806392158d92146103f457806395d89b4114610424578063a22cb46514610442578063b88d4fde1461045e5761018e565b80632f745c591161014b5780634f6ccce7116101255780634f6ccce7146102e65780635a4dd47d146103165780636352211e1461034657806370a08231146103765761018e565b80632f745c591461026757806333960a7b1461029757806342842e0e146102ca5761018e565b806301ffc9a71461019357806306fdde03146101c3578063081812fc146101e1578063095ea7b31461021157806318160ddd1461022d57806323b872dd1461024b575b600080fd5b6101ad60048036038101906101a8919061243e565b61057e565b6040516101ba9190612873565b60405180910390f35b6101cb610590565b6040516101d8919061288e565b60405180910390f35b6101fb60048036038101906101f69190612498565b610622565b604051610208919061280c565b60405180910390f35b61022b60048036038101906102269190612383565b6106a7565b005b6102356107bf565b6040516102429190612ad0565b60405180910390f35b6102656004803603810190610260919061226d565b6107cc565b005b610281600480360381019061027c9190612383565b61082c565b60405161028e9190612ad0565b60405180910390f35b6102b160048036038101906102ac9190612498565b6108d1565b6040516102c19493929190612b22565b60405180910390f35b6102e460048036038101906102df919061226d565b610901565b005b61030060048036038101906102fb9190612498565b610921565b60405161030d9190612ad0565b60405180910390f35b610330600480360381019061032b9190612498565b610992565b60405161033d9190612ad0565b60405180910390f35b610360600480360381019061035b9190612498565b6109b2565b60405161036d919061280c565b60405180910390f35b610390600480360381019061038b9190612200565b610a64565b60405161039d9190612ad0565b60405180910390f35b6103c060048036038101906103bb9190612498565b610b1c565b6040516103cd9190612ad0565b60405180910390f35b6103de610b3c565b6040516103eb919061280c565b60405180910390f35b61040e60048036038101906104099190612498565b610b62565b60405161041b9190612ad0565b60405180910390f35b61042c610b82565b604051610439919061288e565b60405180910390f35b61045c60048036038101906104579190612343565b610c14565b005b610478600480360381019061047391906122c0565b610c2a565b005b610482610c8c565b005b61049e60048036038101906104999190612498565b610ca3565b6040516104ab919061288e565b60405180910390f35b6104bc610d4a565b6040516104c99190612ad0565b60405180910390f35b6104ec60048036038101906104e79190612498565b610d54565b6040516104f99190612ad0565b60405180910390f35b61051c6004803603810190610517919061222d565b610d74565b6040516105299190612873565b60405180910390f35b61054c60048036038101906105479190612200565b610e08565b005b610568600480360381019061056391906123c3565b610f13565b6040516105759190612ad0565b60405180910390f35b600061058982610fe6565b9050919050565b60606000805461059f90612d71565b80601f01602080910402602001604051908101604052809291908181526020018280546105cb90612d71565b80156106185780601f106105ed57610100808354040283529160200191610618565b820191906000526020600020905b8154815290600101906020018083116105fb57829003601f168201915b5050505050905090565b600061062d82611060565b61066c576040517f08c379a000000000000000000000000000000000000000000000000000000000815260040161066390612a10565b60405180910390fd5b6004600083815260200190815260200160002060009054906101000a900473ffffffffffffffffffffffffffffffffffffffff169050919050565b60006106b2826109b2565b90508073ffffffffffffffffffffffffffffffffffffffff168373ffffffffffffffffffffffffffffffffffffffff161415610723576040517f08c379a000000000000000000000000000000000000000000000000000000000815260040161071a90612a50565b60405180910390fd5b8073ffffffffffffffffffffffffffffffffffffffff166107426110cc565b73ffffffffffffffffffffffffffffffffffffffff16148061077157506107708161076b6110cc565b610d74565b5b6107b0576040517f08c379a00000000000000000000000000000000000000000000000000000000081526004016107a790612990565b60405180910390fd5b6107ba83836110d4565b505050565b6000600880549050905090565b6107dd6107d76110cc565b8261118d565b61081c576040517f08c379a000000000000000000000000000000000000000000000000000000000815260040161081390612a70565b60405180910390fd5b61082783838361126b565b505050565b600061083783610a64565b8210610878576040517f08c379a000000000000000000000000000000000000000000000000000000000815260040161086f906128b0565b60405180910390fd5b600660008473ffffffffffffffffffffffffffffffffffffffff1673ffffffffffffffffffffffffffffffffffffffff168152602001908152602001600020600083815260200190815260200160002054905092915050565b600c6020528060005260406000206000915090508060000154908060010154908060020154908060030154905084565b61091c83838360405180602001604052806000815250610c2a565b505050565b600061092b6107bf565b821061096c576040517f08c379a000000000000000000000000000000000000000000000000000000000815260040161096390612a90565b60405180910390fd5b600882815481106109805761097f612f0a565b5b90600052602060002001549050919050565b6000600c6000838152602001908152602001600020600201549050919050565b6000806002600084815260200190815260200160002060009054906101000a900473ffffffffffffffffffffffffffffffffffffffff169050600073ffffffffffffffffffffffffffffffffffffffff168173ffffffffffffffffffffffffffffffffffffffff161415610a5b576040517f08c379a0000000000000000000000000000000000000000000000000000000008152600401610a52906129d0565b60405180910390fd5b80915050919050565b60008073ffffffffffffffffffffffffffffffffffffffff168273ffffffffffffffffffffffffffffffffffffffff161415610ad5576040517f08c379a0000000000000000000000000000000000000000000000000000000008152600401610acc906129b0565b60405180910390fd5b600360008373ffffffffffffffffffffffffffffffffffffffff1673ffffffffffffffffffffffffffffffffffffffff168152602001908152602001600020549050919050565b6000600c6000838152602001908152602001600020600301549050919050565b600a60009054906101000a900473ffffffffffffffffffffffffffffffffffffffff1681565b6000600c6000838152602001908152602001600020600001549050919050565b606060018054610b9190612d71565b80601f0160208091040260200160405190810160405280929190818152602001828054610bbd90612d71565b8015610c0a5780601f10610bdf57610100808354040283529160200191610c0a565b820191906000526020600020905b815481529060010190602001808311610bed57829003601f168201915b5050505050905090565b610c26610c1f6110cc565b83836114d2565b5050565b610c3b610c356110cc565b8361118d565b610c7a576040517f08c379a0000000000000000000000000000000000000000000000000000000008152600401610c7190612a70565b60405180910390fd5b610c868484848461163f565b50505050565b6001600b54610c9b9190612c00565b600b81905550565b6060610cae82611060565b610ced576040517f08c379a0000000000000000000000000000000000000000000000000000000008152600401610ce490612a30565b60405180910390fd5b6000610cf761169b565b90506000815111610d175760405180602001604052806000815250610d42565b80610d21846116b2565b604051602001610d329291906127e8565b6040516020818303038152906040525b915050919050565b6000600b54905090565b6000600c6000838152602001908152602001600020600101549050919050565b6000600560008473ffffffffffffffffffffffffffffffffffffffff1673ffffffffffffffffffffffffffffffffffffffff16815260200190815260200160002060008373ffffffffffffffffffffffffffffffffffffffff1673ffffffffffffffffffffffffffffffffffffffff16815260200190815260200160002060009054906101000a900460ff16905092915050565b600a60009054906101000a900473ffffffffffffffffffffffffffffffffffffffff1673ffffffffffffffffffffffffffffffffffffffff163373ffffffffffffffffffffffffffffffffffffffff161415610f1057600073ffffffffffffffffffffffffffffffffffffffff168173ffffffffffffffffffffffffffffffffffffffff161415610ece576040517f08c379a0000000000000000000000000000000000000000000000000000000008152600401610ec590612ab0565b60405180910390fd5b80600a60006101000a81548173ffffffffffffffffffffffffffffffffffffffff021916908373ffffffffffffffffffffffffffffffffffffffff1602179055505b50565b600080610f1e610d4a565b905082600c60008381526020019081526020016000206003018190555085600c60008381526020019081526020016000206000018190555084600c60008381526020019081526020016000206001018190555083600c6000838152602001908152602001600020600201819055507fa9879e3779814f90abefacca111d214caa2c7bd1683e82892d2a1219a8d204db818833604051610fbf93929190612aeb565b60405180910390a1610fd18782611813565b610fd9610c8c565b8091505095945050505050565b60007f780e9d63000000000000000000000000000000000000000000000000000000007bffffffffffffffffffffffffffffffffffffffffffffffffffffffff1916827bffffffffffffffffffffffffffffffffffffffffffffffffffffffff191614806110595750611058826119ed565b5b9050919050565b60008073ffffffffffffffffffffffffffffffffffffffff166002600084815260200190815260200160002060009054906101000a900473ffffffffffffffffffffffffffffffffffffffff1673ffffffffffffffffffffffffffffffffffffffff1614159050919050565b600033905090565b816004600083815260200190815260200160002060006101000a81548173ffffffffffffffffffffffffffffffffffffffff021916908373ffffffffffffffffffffffffffffffffffffffff160217905550808273ffffffffffffffffffffffffffffffffffffffff16611147836109b2565b73ffffffffffffffffffffffffffffffffffffffff167f8c5be1e5ebec7d5bd14f71427d1e84f3dd0314c0f7b2291e5b200ac8c7c3b92560405160405180910390a45050565b600061119882611060565b6111d7576040517f08c379a00000000000000000000000000000000000000000000000000000000081526004016111ce90612970565b60405180910390fd5b60006111e2836109b2565b90508073ffffffffffffffffffffffffffffffffffffffff168473ffffffffffffffffffffffffffffffffffffffff16148061122457506112238185610d74565b5b8061126257508373ffffffffffffffffffffffffffffffffffffffff1661124a84610622565b73ffffffffffffffffffffffffffffffffffffffff16145b91505092915050565b8273ffffffffffffffffffffffffffffffffffffffff1661128b826109b2565b73ffffffffffffffffffffffffffffffffffffffff16146112e1576040517f08c379a00000000000000000000000000000000000000000000000000000000081526004016112d8906128f0565b60405180910390fd5b600073ffffffffffffffffffffffffffffffffffffffff168273ffffffffffffffffffffffffffffffffffffffff161415611351576040517f08c379a000000000000000000000000000000000000000000000000000000000815260040161134890612930565b60405180910390fd5b61135c838383611acf565b6113676000826110d4565b6001600360008573ffffffffffffffffffffffffffffffffffffffff1673ffffffffffffffffffffffffffffffffffffffff16815260200190815260200160002060008282546113b79190612c87565b925050819055506001600360008473ffffffffffffffffffffffffffffffffffffffff1673ffffffffffffffffffffffffffffffffffffffff168152602001908152602001600020600082825461140e9190612c00565b92505081905550816002600083815260200190815260200160002060006101000a81548173ffffffffffffffffffffffffffffffffffffffff021916908373ffffffffffffffffffffffffffffffffffffffff160217905550808273ffffffffffffffffffffffffffffffffffffffff168473ffffffffffffffffffffffffffffffffffffffff167fddf252ad1be2c89b69c2b068fc378daa952ba7f163c4a11628f55a4df523b3ef60405160405180910390a46114cd838383611adf565b505050565b8173ffffffffffffffffffffffffffffffffffffffff168373ffffffffffffffffffffffffffffffffffffffff161415611541576040517f08c379a000000000000000000000000000000000000000000000000000000000815260040161153890612950565b60405180910390fd5b80600560008573ffffffffffffffffffffffffffffffffffffffff1673ffffffffffffffffffffffffffffffffffffffff16815260200190815260200160002060008473ffffffffffffffffffffffffffffffffffffffff1673ffffffffffffffffffffffffffffffffffffffff16815260200190815260200160002060006101000a81548160ff0219169083151502179055508173ffffffffffffffffffffffffffffffffffffffff168373ffffffffffffffffffffffffffffffffffffffff167f17307eab39ab6107e8899845ad3d59bd9653f200f220920489ca2b5937696c31836040516116329190612873565b60405180910390a3505050565b61164a84848461126b565b61165684848484611ae4565b611695576040517f08c379a000000000000000000000000000000000000000000000000000000000815260040161168c906128d0565b60405180910390fd5b50505050565b606060405180602001604052806000815250905090565b606060008214156116fa576040518060400160405280600181526020017f3000000000000000000000000000000000000000000000000000000000000000815250905061180e565b600082905060005b6000821461172c57808061171590612dd4565b915050600a826117259190612c56565b9150611702565b60008167ffffffffffffffff81111561174857611747612f39565b5b6040519080825280601f01601f19166020018201604052801561177a5781602001600182028036833780820191505090505b5090505b60008514611807576001826117939190612c87565b9150600a856117a29190612e1d565b60306117ae9190612c00565b60f81b8183815181106117c4576117c3612f0a565b5b60200101907effffffffffffffffffffffffffffffffffffffffffffffffffffffffffffff1916908160001a905350600a856118009190612c56565b945061177e565b8093505050505b919050565b600073ffffffffffffffffffffffffffffffffffffffff168273ffffffffffffffffffffffffffffffffffffffff161415611883576040517f08c379a000000000000000000000000000000000000000000000000000000000815260040161187a906129f0565b60405180910390fd5b61188c81611060565b156118cc576040517f08c379a00000000000000000000000000000000000000000000000000000000081526004016118c390612910565b60405180910390fd5b6118d860008383611acf565b6001600360008473ffffffffffffffffffffffffffffffffffffffff1673ffffffffffffffffffffffffffffffffffffffff16815260200190815260200160002060008282546119289190612c00565b92505081905550816002600083815260200190815260200160002060006101000a81548173ffffffffffffffffffffffffffffffffffffffff021916908373ffffffffffffffffffffffffffffffffffffffff160217905550808273ffffffffffffffffffffffffffffffffffffffff16600073ffffffffffffffffffffffffffffffffffffffff167fddf252ad1be2c89b69c2b068fc378daa952ba7f163c4a11628f55a4df523b3ef60405160405180910390a46119e960008383611adf565b5050565b60007f80ac58cd000000000000000000000000000000000000000000000000000000007bffffffffffffffffffffffffffffffffffffffffffffffffffffffff1916827bffffffffffffffffffffffffffffffffffffffffffffffffffffffff19161480611ab857507f5b5e139f000000000000000000000000000000000000000000000000000000007bffffffffffffffffffffffffffffffffffffffffffffffffffffffff1916827bffffffffffffffffffffffffffffffffffffffffffffffffffffffff1916145b80611ac85750611ac782611c7b565b5b9050919050565b611ada838383611ce5565b505050565b505050565b6000611b058473ffffffffffffffffffffffffffffffffffffffff16611df9565b15611c6e578373ffffffffffffffffffffffffffffffffffffffff1663150b7a02611b2e6110cc565b8786866040518563ffffffff1660e01b8152600401611b509493929190612827565b602060405180830381600087803b158015611b6a57600080fd5b505af1925050508015611b9b57506040513d601f19601f82011682018060405250810190611b98919061246b565b60015b611c1e573d8060008114611bcb576040519150601f19603f3d011682016040523d82523d6000602084013e611bd0565b606091505b50600081511415611c16576040517f08c379a0000000000000000000000000000000000000000000000000000000008152600401611c0d906128d0565b60405180910390fd5b805181602001fd5b63150b7a0260e01b7bffffffffffffffffffffffffffffffffffffffffffffffffffffffff1916817bffffffffffffffffffffffffffffffffffffffffffffffffffffffff191614915050611c73565b600190505b949350505050565b60007f01ffc9a7000000000000000000000000000000000000000000000000000000007bffffffffffffffffffffffffffffffffffffffffffffffffffffffff1916827bffffffffffffffffffffffffffffffffffffffffffffffffffffffff1916149050919050565b611cf0838383611e1c565b600073ffffffffffffffffffffffffffffffffffffffff168373ffffffffffffffffffffffffffffffffffffffff161415611d3357611d2e81611e21565b611d72565b8173ffffffffffffffffffffffffffffffffffffffff168373ffffffffffffffffffffffffffffffffffffffff1614611d7157611d708382611e6a565b5b5b600073ffffffffffffffffffffffffffffffffffffffff168273ffffffffffffffffffffffffffffffffffffffff161415611db557611db081611fd7565b611df4565b8273ffffffffffffffffffffffffffffffffffffffff168273ffffffffffffffffffffffffffffffffffffffff1614611df357611df282826120a8565b5b5b505050565b6000808273ffffffffffffffffffffffffffffffffffffffff163b119050919050565b505050565b6008805490506009600083815260200190815260200160002081905550600881908060018154018082558091505060019003906000526020600020016000909190919091505550565b60006001611e7784610a64565b611e819190612c87565b9050600060076000848152602001908152602001600020549050818114611f66576000600660008673ffffffffffffffffffffffffffffffffffffffff1673ffffffffffffffffffffffffffffffffffffffff168152602001908152602001600020600084815260200190815260200160002054905080600660008773ffffffffffffffffffffffffffffffffffffffff1673ffffffffffffffffffffffffffffffffffffffff168152602001908152602001600020600084815260200190815260200160002081905550816007600083815260200190815260200160002081905550505b6007600084815260200190815260200160002060009055600660008573ffffffffffffffffffffffffffffffffffffffff1673ffffffffffffffffffffffffffffffffffffffff16815260200190815260200160002060008381526020019081526020016000206000905550505050565b60006001600880549050611feb9190612c87565b905060006009600084815260200190815260200160002054905060006008838154811061201b5761201a612f0a565b5b90600052602060002001549050806008838154811061203d5761203c612f0a565b5b90600052602060002001819055508160096000838152602001908152602001600020819055506009600085815260200190815260200160002060009055600880548061208c5761208b612edb565b5b6001900381819060005260206000200160009055905550505050565b60006120b383610a64565b905081600660008573ffffffffffffffffffffffffffffffffffffffff1673ffffffffffffffffffffffffffffffffffffffff168152602001908152602001600020600083815260200190815260200160002081905550806007600084815260200190815260200160002081905550505050565b600061213a61213584612b8c565b612b67565b90508281526020810184848401111561215657612155612f6d565b5b612161848285612d2f565b509392505050565b60008135905061217881613434565b92915050565b60008135905061218d8161344b565b92915050565b6000813590506121a281613462565b92915050565b6000815190506121b781613462565b92915050565b600082601f8301126121d2576121d1612f68565b5b81356121e2848260208601612127565b91505092915050565b6000813590506121fa81613479565b92915050565b60006020828403121561221657612215612f77565b5b600061222484828501612169565b91505092915050565b6000806040838503121561224457612243612f77565b5b600061225285828601612169565b925050602061226385828601612169565b9150509250929050565b60008060006060848603121561228657612285612f77565b5b600061229486828701612169565b93505060206122a586828701612169565b92505060406122b6868287016121eb565b9150509250925092565b600080600080608085870312156122da576122d9612f77565b5b60006122e887828801612169565b94505060206122f987828801612169565b935050604061230a878288016121eb565b925050606085013567ffffffffffffffff81111561232b5761232a612f72565b5b612337878288016121bd565b91505092959194509250565b6000806040838503121561235a57612359612f77565b5b600061236885828601612169565b92505060206123798582860161217e565b9150509250929050565b6000806040838503121561239a57612399612f77565b5b60006123a885828601612169565b92505060206123b9858286016121eb565b9150509250929050565b600080600080600060a086880312156123df576123de612f77565b5b60006123ed88828901612169565b95505060206123fe888289016121eb565b945050604061240f888289016121eb565b9350506060612420888289016121eb565b9250506080612431888289016121eb565b9150509295509295909350565b60006020828403121561245457612453612f77565b5b600061246284828501612193565b91505092915050565b60006020828403121561248157612480612f77565b5b600061248f848285016121a8565b91505092915050565b6000602082840312156124ae576124ad612f77565b5b60006124bc848285016121eb565b91505092915050565b6124ce81612cbb565b82525050565b6124dd81612ccd565b82525050565b60006124ee82612bbd565b6124f88185612bd3565b9350612508818560208601612d3e565b61251181612f7c565b840191505092915050565b600061252782612bc8565b6125318185612be4565b9350612541818560208601612d3e565b61254a81612f7c565b840191505092915050565b600061256082612bc8565b61256a8185612bf5565b935061257a818560208601612d3e565b80840191505092915050565b6000612593602b83612be4565b915061259e82612f8d565b604082019050919050565b60006125b6603283612be4565b91506125c182612fdc565b604082019050919050565b60006125d9602583612be4565b91506125e48261302b565b604082019050919050565b60006125fc601c83612be4565b91506126078261307a565b602082019050919050565b600061261f602483612be4565b915061262a826130a3565b604082019050919050565b6000612642601983612be4565b915061264d826130f2565b602082019050919050565b6000612665602c83612be4565b91506126708261311b565b604082019050919050565b6000612688603883612be4565b91506126938261316a565b604082019050919050565b60006126ab602a83612be4565b91506126b6826131b9565b604082019050919050565b60006126ce602983612be4565b91506126d982613208565b604082019050919050565b60006126f1602083612be4565b91506126fc82613257565b602082019050919050565b6000612714602c83612be4565b915061271f82613280565b604082019050919050565b6000612737602f83612be4565b9150612742826132cf565b604082019050919050565b600061275a602183612be4565b91506127658261331e565b604082019050919050565b600061277d603183612be4565b91506127888261336d565b604082019050919050565b60006127a0602c83612be4565b91506127ab826133bc565b604082019050919050565b60006127c3601283612be4565b91506127ce8261340b565b602082019050919050565b6127e281612d25565b82525050565b60006127f48285612555565b91506128008284612555565b91508190509392505050565b600060208201905061282160008301846124c5565b92915050565b600060808201905061283c60008301876124c5565b61284960208301866124c5565b61285660408301856127d9565b818103606083015261286881846124e3565b905095945050505050565b600060208201905061288860008301846124d4565b92915050565b600060208201905081810360008301526128a8818461251c565b905092915050565b600060208201905081810360008301526128c981612586565b9050919050565b600060208201905081810360008301526128e9816125a9565b9050919050565b60006020820190508181036000830152612909816125cc565b9050919050565b60006020820190508181036000830152612929816125ef565b9050919050565b6000602082019050818103600083015261294981612612565b9050919050565b6000602082019050818103600083015261296981612635565b9050919050565b6000602082019050818103600083015261298981612658565b9050919050565b600060208201905081810360008301526129a98161267b565b9050919050565b600060208201905081810360008301526129c98161269e565b9050919050565b600060208201905081810360008301526129e9816126c1565b9050919050565b60006020820190508181036000830152612a09816126e4565b9050919050565b60006020820190508181036000830152612a2981612707565b9050919050565b60006020820190508181036000830152612a498161272a565b9050919050565b60006020820190508181036000830152612a698161274d565b9050919050565b60006020820190508181036000830152612a8981612770565b9050919050565b60006020820190508181036000830152612aa981612793565b9050919050565b60006020820190508181036000830152612ac9816127b6565b9050919050565b6000602082019050612ae560008301846127d9565b92915050565b6000606082019050612b0060008301866127d9565b612b0d60208301856124c5565b612b1a60408301846124c5565b949350505050565b6000608082019050612b3760008301876127d9565b612b4460208301866127d9565b612b5160408301856127d9565b612b5e60608301846127d9565b95945050505050565b6000612b71612b82565b9050612b7d8282612da3565b919050565b6000604051905090565b600067ffffffffffffffff821115612ba757612ba6612f39565b5b612bb082612f7c565b9050602081019050919050565b600081519050919050565b600081519050919050565b600082825260208201905092915050565b600082825260208201905092915050565b600081905092915050565b6000612c0b82612d25565b9150612c1683612d25565b9250827fffffffffffffffffffffffffffffffffffffffffffffffffffffffffffffffff03821115612c4b57612c4a612e4e565b5b828201905092915050565b6000612c6182612d25565b9150612c6c83612d25565b925082612c7c57612c7b612e7d565b5b828204905092915050565b6000612c9282612d25565b9150612c9d83612d25565b925082821015612cb057612caf612e4e565b5b828203905092915050565b6000612cc682612d05565b9050919050565b60008115159050919050565b60007fffffffff0000000000000000000000000000000000000000000000000000000082169050919050565b600073ffffffffffffffffffffffffffffffffffffffff82169050919050565b6000819050919050565b82818337600083830152505050565b60005b83811015612d5c578082015181840152602081019050612d41565b83811115612d6b576000848401525b50505050565b60006002820490506001821680612d8957607f821691505b60208210811415612d9d57612d9c612eac565b5b50919050565b612dac82612f7c565b810181811067ffffffffffffffff82111715612dcb57612dca612f39565b5b80604052505050565b6000612ddf82612d25565b91507fffffffffffffffffffffffffffffffffffffffffffffffffffffffffffffffff821415612e1257612e11612e4e565b5b600182019050919050565b6000612e2882612d25565b9150612e3383612d25565b925082612e4357612e42612e7d565b5b828206905092915050565b7f4e487b7100000000000000000000000000000000000000000000000000000000600052601160045260246000fd5b7f4e487b7100000000000000000000000000000000000000000000000000000000600052601260045260246000fd5b7f4e487b7100000000000000000000000000000000000000000000000000000000600052602260045260246000fd5b7f4e487b7100000000000000000000000000000000000000000000000000000000600052603160045260246000fd5b7f4e487b7100000000000000000000000000000000000000000000000000000000600052603260045260246000fd5b7f4e487b7100000000000000000000000000000000000000000000000000000000600052604160045260246000fd5b600080fd5b600080fd5b600080fd5b600080fd5b6000601f19601f8301169050919050565b7f455243373231456e756d657261626c653a206f776e657220696e646578206f7560008201527f74206f6620626f756e6473000000000000000000000000000000000000000000602082015250565b7f4552433732313a207472616e7366657220746f206e6f6e20455243373231526560008201527f63656976657220696d706c656d656e7465720000000000000000000000000000602082015250565b7f4552433732313a207472616e736665722066726f6d20696e636f72726563742060008201527f6f776e6572000000000000000000000000000000000000000000000000000000602082015250565b7f4552433732313a20746f6b656e20616c7265616479206d696e74656400000000600082015250565b7f4552433732313a207472616e7366657220746f20746865207a65726f2061646460008201527f7265737300000000000000000000000000000000000000000000000000000000602082015250565b7f4552433732313a20617070726f766520746f2063616c6c657200000000000000600082015250565b7f4552433732313a206f70657261746f7220717565727920666f72206e6f6e657860008201527f697374656e7420746f6b656e0000000000000000000000000000000000000000602082015250565b7f4552433732313a20617070726f76652063616c6c6572206973206e6f74206f7760008201527f6e6572206e6f7220617070726f76656420666f7220616c6c0000000000000000602082015250565b7f4552433732313a2062616c616e636520717565727920666f7220746865207a6560008201527f726f206164647265737300000000000000000000000000000000000000000000602082015250565b7f4552433732313a206f776e657220717565727920666f72206e6f6e657869737460008201527f656e7420746f6b656e0000000000000000000000000000000000000000000000602082015250565b7f4552433732313a206d696e7420746f20746865207a65726f2061646472657373600082015250565b7f4552433732313a20617070726f76656420717565727920666f72206e6f6e657860008201527f697374656e7420746f6b656e0000000000000000000000000000000000000000602082015250565b7f4552433732314d657461646174613a2055524920717565727920666f72206e6f60008201527f6e6578697374656e7420746f6b656e0000000000000000000000000000000000602082015250565b7f4552433732313a20617070726f76616c20746f2063757272656e74206f776e6560008201527f7200000000000000000000000000000000000000000000000000000000000000602082015250565b7f4552433732313a207472616e736665722063616c6c6572206973206e6f74206f60008201527f776e6572206e6f7220617070726f766564000000000000000000000000000000602082015250565b7f455243373231456e756d657261626c653a20676c6f62616c20696e646578206f60008201527f7574206f6620626f756e64730000000000000000000000000000000000000000602082015250565b7f496e636f72726563742061646472657373210000000000000000000000000000600082015250565b61343d81612cbb565b811461344857600080fd5b50565b61345481612ccd565b811461345f57600080fd5b50565b61346b81612cd9565b811461347657600080fd5b50565b61348281612d25565b811461348d57600080fd5b5056fea2646970667358221220fe0d90a3b4cc0176718a2250d66cc10a2165812115ae968d7655fae1468f1f1a64736f6c63430008050033",
  "immutableReferences": {},
  "source": "///\n/// @title TFE Blockchain\n/// @author Iaki Balaguer Baeras\n/// @notice Blockchain-based drone plot fumigation system\n///\n\n// SPDX-License-Identifier: MIT\npragma solidity ^0.8.0;\n\nimport \"./Ownable.sol\";\nimport \"@openzeppelin/contracts/token/ERC721/ERC721.sol\";\nimport \"@openzeppelin/contracts/token/ERC721/extensions/ERC721Enumerable.sol\";\n\n///\n/// @notice ERC721 Token Drone Smart Contract\n///\ncontract DroneToken is ERC721, ERC721Enumerable, Ownable{ \n\n    struct attibutesDrone{\n        uint256 minimumHeight;\n        uint256 maximumHeight;\n        uint256 cost;\n        uint256 pesticide;\n    }\n\n    uint256 private lastDroneTokenId = 1;\n    mapping(uint256 => attibutesDrone) public droneList;\n\n    constructor(string memory name_, string memory symbol_) ERC721(name_, symbol_) Ownable(){\n\n    }\n\n    ///\n    /// @notice Create a new drone\n    ///\n    event mintDrone (uint256 droneId, address to, address me);\n    function mint(address _owner, uint256 _minimumHeight, uint256 _maximumHeight, uint256 _cost, uint256 _pesticide)  public returns (uint256 result)     {\n        uint256 droneId = getLastDroneTokenId();\n\n        droneList[droneId].pesticide = _pesticide;\n        droneList[droneId].minimumHeight = _minimumHeight;\n        droneList[droneId].maximumHeight = _maximumHeight;\n        droneList[droneId].cost = _cost;\n        \n        emit mintDrone(droneId, _owner, msg.sender); \n        super._mint(_owner, droneId);  \n        setLastDroneTokenId();           \n\n        return droneId;\n    }\n\n    ///\n    /// @notice Additional functions\n    ///\n    function setLastDroneTokenId() public {\n       lastDroneTokenId = lastDroneTokenId + 1;\n    }\n\n    function getLastDroneTokenId() public view returns (uint256 result) {\n        return lastDroneTokenId;\n    }\n\n    function getMinimumHeight(uint256 droneId) public view returns (uint256 minimumHeight) {\n        return (droneList[droneId].minimumHeight);\n    }\n\n    function getMaximumHeight(uint256 droneId) public view returns (uint256 maximumHeight) {\n        return (droneList[droneId].maximumHeight);\n    }\n\n    function getCost(uint256 droneId) public view returns (uint256 cost) {\n        return (droneList[droneId].cost);\n    }\n\n    function getPesticide(uint256 droneId) public view returns (uint256 pesticide) {\n        return (droneList[droneId].pesticide);\n    }\n\n    function _beforeTokenTransfer(address from, address to, uint256 tokenId) internal override(ERC721, ERC721Enumerable){\n        super._beforeTokenTransfer(from, to, tokenId);\n    }\n\n    function supportsInterface(bytes4 interfaceId) public view override(ERC721, ERC721Enumerable) returns (bool) {\n        return super.supportsInterface(interfaceId);\n    }\n}",
  "sourcePath": "/home/ubuntu/tfe-blockchain/contracts/DroneToken.sol",
  "compiler": {
    "name": "solc",
    "version": "0.8.5+commit.a4f2e591.Emscripten.clang"
  },
  "schemaVersion": "3.4.7",
  "updatedAt": "2022-07-04T18:23:39.447Z",
  "networkType": "ethereum",
  "devdoc": {
    "kind": "dev",
    "methods": {
      "approve(address,uint256)": {
        "details": "See {IERC721-approve}."
      },
      "balanceOf(address)": {
        "details": "See {IERC721-balanceOf}."
      },
      "getApproved(uint256)": {
        "details": "See {IERC721-getApproved}."
      },
      "isApprovedForAll(address,address)": {
        "details": "See {IERC721-isApprovedForAll}."
      },
      "name()": {
        "details": "See {IERC721Metadata-name}."
      },
      "ownerOf(uint256)": {
        "details": "See {IERC721-ownerOf}."
      },
      "safeTransferFrom(address,address,uint256)": {
        "details": "See {IERC721-safeTransferFrom}."
      },
      "safeTransferFrom(address,address,uint256,bytes)": {
        "details": "See {IERC721-safeTransferFrom}."
      },
      "setApprovalForAll(address,bool)": {
        "details": "See {IERC721-setApprovalForAll}."
      },
      "symbol()": {
        "details": "See {IERC721Metadata-symbol}."
      },
      "tokenByIndex(uint256)": {
        "details": "See {IERC721Enumerable-tokenByIndex}."
      },
      "tokenOfOwnerByIndex(address,uint256)": {
        "details": "See {IERC721Enumerable-tokenOfOwnerByIndex}."
      },
      "tokenURI(uint256)": {
        "details": "See {IERC721Metadata-tokenURI}."
      },
      "totalSupply()": {
        "details": "See {IERC721Enumerable-totalSupply}."
      },
      "transferFrom(address,address,uint256)": {
        "details": "See {IERC721-transferFrom}."
      }
    },
    "version": 1
  },
  "userdoc": {
    "events": {
      "mintDrone(uint256,address,address)": {
        "notice": "Create a new drone"
      }
    },
    "kind": "user",
    "methods": {
      "setLastDroneTokenId()": {
        "notice": "Additional functions"
      }
    },
    "notice": "ERC721 Token Drone Smart Contract",
    "version": 1
  }
}