{
  "contractName": "Fumigation",
  "abi": [
    {
      "inputs": [
        {
          "internalType": "address",
          "name": "_addressTokenDrone",
          "type": "address"
        },
        {
          "internalType": "address",
          "name": "_addressTokenPlot",
          "type": "address"
        }
      ],
      "stateMutability": "nonpayable",
      "type": "constructor"
    },
    {
      "anonymous": false,
      "inputs": [
        {
          "indexed": false,
          "internalType": "address",
          "name": "owner",
          "type": "address"
        },
        {
          "indexed": false,
          "internalType": "uint256",
          "name": "droneId",
          "type": "uint256"
        },
        {
          "indexed": false,
          "internalType": "uint256",
          "name": "plotId",
          "type": "uint256"
        }
      ],
      "name": "newFumigationEvent",
      "type": "event"
    },
    {
      "inputs": [
        {
          "internalType": "uint256",
          "name": "",
          "type": "uint256"
        }
      ],
      "name": "fumigationList",
      "outputs": [
        {
          "internalType": "uint256",
          "name": "droneId",
          "type": "uint256"
        },
        {
          "internalType": "uint256",
          "name": "plotId",
          "type": "uint256"
        }
      ],
      "stateMutability": "view",
      "type": "function",
      "constant": true
    },
    {
      "inputs": [],
      "name": "owner",
      "outputs": [
        {
          "internalType": "address",
          "name": "",
          "type": "address"
        }
      ],
      "stateMutability": "view",
      "type": "function",
      "constant": true
    },
    {
      "inputs": [
        {
          "internalType": "address",
          "name": "newOwner",
          "type": "address"
        }
      ],
      "name": "transferOwnership",
      "outputs": [],
      "stateMutability": "nonpayable",
      "type": "function"
    },
    {
      "inputs": [
        {
          "internalType": "address",
          "name": "_owner",
          "type": "address"
        },
        {
          "internalType": "uint256",
          "name": "_minimumHeight",
          "type": "uint256"
        },
        {
          "internalType": "uint256",
          "name": "_maximumHeight",
          "type": "uint256"
        },
        {
          "internalType": "uint256",
          "name": "_cost",
          "type": "uint256"
        },
        {
          "internalType": "uint256",
          "name": "_pesticide",
          "type": "uint256"
        }
      ],
      "name": "newDrone",
      "outputs": [
        {
          "internalType": "uint256",
          "name": "",
          "type": "uint256"
        }
      ],
      "stateMutability": "nonpayable",
      "type": "function"
    },
    {
      "inputs": [
        {
          "internalType": "address",
          "name": "_owner",
          "type": "address"
        },
        {
          "internalType": "uint256",
          "name": "_minimumHeightAllowed",
          "type": "uint256"
        },
        {
          "internalType": "uint256",
          "name": "_maximumHeightAllowed",
          "type": "uint256"
        },
        {
          "internalType": "uint256",
          "name": "_acceptedPesticide",
          "type": "uint256"
        }
      ],
      "name": "newPlot",
      "outputs": [
        {
          "internalType": "uint256",
          "name": "result",
          "type": "uint256"
        }
      ],
      "stateMutability": "nonpayable",
      "type": "function"
    },
    {
      "inputs": [
        {
          "internalType": "uint256",
          "name": "_droneId",
          "type": "uint256"
        },
        {
          "internalType": "uint256",
          "name": "_plotId",
          "type": "uint256"
        }
      ],
      "name": "newFumigation",
      "outputs": [
        {
          "internalType": "bool",
          "name": "result",
          "type": "bool"
        }
      ],
      "stateMutability": "nonpayable",
      "type": "function"
    },
    {
      "inputs": [
        {
          "internalType": "uint256",
          "name": "_droneId",
          "type": "uint256"
        },
        {
          "internalType": "uint256",
          "name": "_plotId",
          "type": "uint256"
        }
      ],
      "name": "fumigationValidation",
      "outputs": [
        {
          "internalType": "bool",
          "name": "result",
          "type": "bool"
        }
      ],
      "stateMutability": "view",
      "type": "function",
      "constant": true
    },
    {
      "inputs": [
        {
          "internalType": "uint256",
          "name": "_droneId",
          "type": "uint256"
        },
        {
          "internalType": "uint256",
          "name": "_plotId",
          "type": "uint256"
        }
      ],
      "name": "fumigationCost",
      "outputs": [
        {
          "internalType": "uint256",
          "name": "result",
          "type": "uint256"
        }
      ],
      "stateMutability": "view",
      "type": "function",
      "constant": true
    },
    {
      "inputs": [
        {
          "internalType": "uint256",
          "name": "droneId",
          "type": "uint256"
        }
      ],
      "name": "infoDrone",
      "outputs": [
        {
          "internalType": "uint256",
          "name": "_minimumHeight",
          "type": "uint256"
        },
        {
          "internalType": "uint256",
          "name": "_maximumHeight",
          "type": "uint256"
        },
        {
          "internalType": "uint256",
          "name": "_cost",
          "type": "uint256"
        },
        {
          "internalType": "uint256",
          "name": "_pesticide",
          "type": "uint256"
        }
      ],
      "stateMutability": "view",
      "type": "function",
      "constant": true
    },
    {
      "inputs": [
        {
          "internalType": "uint256",
          "name": "plotId",
          "type": "uint256"
        }
      ],
      "name": "infoPlot",
      "outputs": [
        {
          "internalType": "uint256",
          "name": "_minimumHeightAllowed",
          "type": "uint256"
        },
        {
          "internalType": "uint256",
          "name": "_maximumHeightAllowed",
          "type": "uint256"
        },
        {
          "internalType": "uint256",
          "name": "_acceptedPesticide",
          "type": "uint256"
        }
      ],
      "stateMutability": "view",
      "type": "function",
      "constant": true
    },
    {
      "inputs": [],
      "name": "getTotalDrones",
      "outputs": [
        {
          "internalType": "uint256",
          "name": "numTotalDrones",
          "type": "uint256"
        }
      ],
      "stateMutability": "view",
      "type": "function",
      "constant": true
    },
    {
      "inputs": [],
      "name": "getTotalPlots",
      "outputs": [
        {
          "internalType": "uint256",
          "name": "numTotalPlots",
          "type": "uint256"
        }
      ],
      "stateMutability": "view",
      "type": "function",
      "constant": true
    },
    {
      "inputs": [],
      "name": "setLastFumigationId",
      "outputs": [],
      "stateMutability": "nonpayable",
      "type": "function"
    },
    {
      "inputs": [],
      "name": "getLastFumigationId",
      "outputs": [
        {
          "internalType": "uint256",
          "name": "result",
          "type": "uint256"
        }
      ],
      "stateMutability": "view",
      "type": "function",
      "constant": true
    },
    {
      "inputs": [
        {
          "internalType": "uint256",
          "name": "fumigationId",
          "type": "uint256"
        }
      ],
      "name": "infoFumigation",
      "outputs": [
        {
          "internalType": "uint256",
          "name": "_droneId",
          "type": "uint256"
        },
        {
          "internalType": "uint256",
          "name": "_plotId",
          "type": "uint256"
        },
        {
          "internalType": "uint256",
          "name": "_pesticide",
          "type": "uint256"
        },
        {
          "internalType": "uint256",
          "name": "_cost",
          "type": "uint256"
        }
      ],
      "stateMutability": "view",
      "type": "function",
      "constant": true
    }
  ],
  "bytecode": "0x608060405260016003553480156200001657600080fd5b50604051620028703803806200287083398181016040528101906200003c91906200011d565b336000806101000a81548173ffffffffffffffffffffffffffffffffffffffff021916908373ffffffffffffffffffffffffffffffffffffffff16021790555081600160006101000a81548173ffffffffffffffffffffffffffffffffffffffff021916908373ffffffffffffffffffffffffffffffffffffffff16021790555080600260006101000a81548173ffffffffffffffffffffffffffffffffffffffff021916908373ffffffffffffffffffffffffffffffffffffffff1602179055505050620001b7565b60008151905062000117816200019d565b92915050565b6000806040838503121562000137576200013662000198565b5b6000620001478582860162000106565b92505060206200015a8582860162000106565b9150509250929050565b6000620001718262000178565b9050919050565b600073ffffffffffffffffffffffffffffffffffffffff82169050919050565b600080fd5b620001a88162000164565b8114620001b457600080fd5b50565b6126a980620001c76000396000f3fe608060405234801561001057600080fd5b50600436106100f55760003560e01c80638da5cb5b11610097578063e6662e1611610066578063e6662e16146102c9578063f2fde38b146102e7578063f815610714610303578063fff3e42b14610333576100f5565b80638da5cb5b1461022c57806394be1b981461024a578063a2b8c3631461027a578063d24024c7146102ab576100f5565b80631fccb641116100d35780631fccb6411461018c5780633c9a1810146101bc57806346902ea0146101c657806388c2cd75146101f9576100f5565b80630abf46f2146100fa5780631bab2f161461012a5780631e8e8a781461015c575b600080fd5b610114600480360381019061010f9190611d5d565b610351565b6040516101219190612087565b60405180910390f35b610144600480360381019061013f9190611d03565b610784565b60405161015393929190612188565b60405180910390f35b61017660048036038101906101719190611c21565b610997565b6040516101839190612144565b60405180910390f35b6101a660048036038101906101a19190611c88565b610c7f565b6040516101b39190612144565b60405180910390f35b6101c4610f6a565b005b6101e060048036038101906101db9190611d03565b610f81565b6040516101f094939291906121bf565b60405180910390f35b610213600480360381019061020e9190611d03565b611148565b60405161022394939291906121bf565b60405180910390f35b610234611409565b6040516102419190611f9d565b60405180910390f35b610264600480360381019061025f9190611d5d565b61142d565b6040516102719190612144565b60405180910390f35b610294600480360381019061028f9190611d03565b6114fd565b6040516102a292919061215f565b60405180910390f35b6102b3611521565b6040516102c09190612144565b60405180910390f35b6102d16115c8565b6040516102de9190612144565b60405180910390f35b61030160048036038101906102fc9190611bc7565b6115d2565b005b61031d60048036038101906103189190611d5d565b6116da565b60405161032a9190612087565b60405180910390f35b61033b6117c1565b6040516103489190612144565b60405180910390f35b60008060019050600260009054906101000a900473ffffffffffffffffffffffffffffffffffffffff1673ffffffffffffffffffffffffffffffffffffffff1663aa1a73a6846040518263ffffffff1660e01b81526004016103b39190612144565b60206040518083038186803b1580156103cb57600080fd5b505afa1580156103df573d6000803e3d6000fd5b505050506040513d601f19601f820116820180604052508101906104039190611d30565b600160009054906101000a900473ffffffffffffffffffffffffffffffffffffffff1673ffffffffffffffffffffffffffffffffffffffff166392158d92866040518263ffffffff1660e01b815260040161045e9190612144565b60206040518083038186803b15801561047657600080fd5b505afa15801561048a573d6000803e3d6000fd5b505050506040513d601f19601f820116820180604052508101906104ae9190611d30565b10156104b957600090505b600260009054906101000a900473ffffffffffffffffffffffffffffffffffffffff1673ffffffffffffffffffffffffffffffffffffffff1663a499e358846040518263ffffffff1660e01b81526004016105149190612144565b60206040518083038186803b15801561052c57600080fd5b505afa158015610540573d6000803e3d6000fd5b505050506040513d601f19601f820116820180604052508101906105649190611d30565b600160009054906101000a900473ffffffffffffffffffffffffffffffffffffffff1673ffffffffffffffffffffffffffffffffffffffff1663e83199e8866040518263ffffffff1660e01b81526004016105bf9190612144565b60206040518083038186803b1580156105d757600080fd5b505afa1580156105eb573d6000803e3d6000fd5b505050506040513d601f19601f8201168201806040525081019061060f9190611d30565b111561061a57600090505b600260009054906101000a900473ffffffffffffffffffffffffffffffffffffffff1673ffffffffffffffffffffffffffffffffffffffff1663104dd1a0846040518263ffffffff1660e01b81526004016106759190612144565b60206040518083038186803b15801561068d57600080fd5b505afa1580156106a1573d6000803e3d6000fd5b505050506040513d601f19601f820116820180604052508101906106c59190611d30565b600160009054906101000a900473ffffffffffffffffffffffffffffffffffffffff1673ffffffffffffffffffffffffffffffffffffffff166370d11225866040518263ffffffff1660e01b81526004016107209190612144565b60206040518083038186803b15801561073857600080fd5b505afa15801561074c573d6000803e3d6000fd5b505050506040513d601f19601f820116820180604052508101906107709190611d30565b1461077a57600090505b8091505092915050565b6000806000600260009054906101000a900473ffffffffffffffffffffffffffffffffffffffff1673ffffffffffffffffffffffffffffffffffffffff1663aa1a73a6856040518263ffffffff1660e01b81526004016107e49190612144565b60206040518083038186803b1580156107fc57600080fd5b505afa158015610810573d6000803e3d6000fd5b505050506040513d601f19601f820116820180604052508101906108349190611d30565b600260009054906101000a900473ffffffffffffffffffffffffffffffffffffffff1673ffffffffffffffffffffffffffffffffffffffff1663a499e358866040518263ffffffff1660e01b815260040161088f9190612144565b60206040518083038186803b1580156108a757600080fd5b505afa1580156108bb573d6000803e3d6000fd5b505050506040513d601f19601f820116820180604052508101906108df9190611d30565b600260009054906101000a900473ffffffffffffffffffffffffffffffffffffffff1673ffffffffffffffffffffffffffffffffffffffff1663104dd1a0876040518263ffffffff1660e01b815260040161093a9190612144565b60206040518083038186803b15801561095257600080fd5b505afa158015610966573d6000803e3d6000fd5b505050506040513d601f19601f8201168201806040525081019061098a9190611d30565b9250925092509193909250565b60008473ffffffffffffffffffffffffffffffffffffffff16600260009054906101000a900473ffffffffffffffffffffffffffffffffffffffff1673ffffffffffffffffffffffffffffffffffffffff16638da5cb5b6040518163ffffffff1660e01b815260040160206040518083038186803b158015610a1857600080fd5b505afa158015610a2c573d6000803e3d6000fd5b505050506040513d601f19601f82011682018060405250810190610a509190611bf4565b73ffffffffffffffffffffffffffffffffffffffff1614610b0f600260009054906101000a900473ffffffffffffffffffffffffffffffffffffffff1673ffffffffffffffffffffffffffffffffffffffff16638da5cb5b6040518163ffffffff1660e01b815260040160206040518083038186803b158015610ad257600080fd5b505afa158015610ae6573d6000803e3d6000fd5b505050506040513d601f19601f82011682018060405250810190610b0a9190611bf4565b611868565b610b1887611868565b604051602001610b29929190611f29565b60405160208183030381529060405290610b79576040517f08c379a0000000000000000000000000000000000000000000000000000000008152600401610b7091906120a2565b60405180910390fd5b50828410610bbc576040517f08c379a0000000000000000000000000000000000000000000000000000000008152600401610bb3906120e4565b60405180910390fd5b6000600260009054906101000a900473ffffffffffffffffffffffffffffffffffffffff1673ffffffffffffffffffffffffffffffffffffffff1663a647e8ec878787876040518563ffffffff1660e01b8152600401610c1f9493929190611fef565b602060405180830381600087803b158015610c3957600080fd5b505af1158015610c4d573d6000803e3d6000fd5b505050506040513d601f19601f82011682018060405250810190610c719190611d30565b905080915050949350505050565b60008573ffffffffffffffffffffffffffffffffffffffff16600160009054906101000a900473ffffffffffffffffffffffffffffffffffffffff1673ffffffffffffffffffffffffffffffffffffffff16638da5cb5b6040518163ffffffff1660e01b815260040160206040518083038186803b158015610d0057600080fd5b505afa158015610d14573d6000803e3d6000fd5b505050506040513d601f19601f82011682018060405250810190610d389190611bf4565b73ffffffffffffffffffffffffffffffffffffffff1614610df7600160009054906101000a900473ffffffffffffffffffffffffffffffffffffffff1673ffffffffffffffffffffffffffffffffffffffff16638da5cb5b6040518163ffffffff1660e01b815260040160206040518083038186803b158015610dba57600080fd5b505afa158015610dce573d6000803e3d6000fd5b505050506040513d601f19601f82011682018060405250810190610df29190611bf4565b611868565b610e0088611868565b604051602001610e11929190611f63565b60405160208183030381529060405290610e61576040517f08c379a0000000000000000000000000000000000000000000000000000000008152600401610e5891906120a2565b60405180910390fd5b50838510610ea4576040517f08c379a0000000000000000000000000000000000000000000000000000000008152600401610e9b906120c4565b60405180910390fd5b6000600160009054906101000a900473ffffffffffffffffffffffffffffffffffffffff1673ffffffffffffffffffffffffffffffffffffffff1663f92883a288888888886040518663ffffffff1660e01b8152600401610f09959493929190612034565b602060405180830381600087803b158015610f2357600080fd5b505af1158015610f37573d6000803e3d6000fd5b505050506040513d601f19601f82011682018060405250810190610f5b9190611d30565b90508091505095945050505050565b6001600354610f79919061222b565b600381905550565b6000806000806000600460008781526020019081526020016000206000015490506000600460008881526020019081526020016000206001015490506000600160009054906101000a900473ffffffffffffffffffffffffffffffffffffffff1673ffffffffffffffffffffffffffffffffffffffff166370d11225846040518263ffffffff1660e01b815260040161101a9190612144565b60206040518083038186803b15801561103257600080fd5b505afa158015611046573d6000803e3d6000fd5b505050506040513d601f19601f8201168201806040525081019061106a9190611d30565b90506000828461107a919061222b565b600160009054906101000a900473ffffffffffffffffffffffffffffffffffffffff1673ffffffffffffffffffffffffffffffffffffffff16635a4dd47d866040518263ffffffff1660e01b81526004016110d59190612144565b60206040518083038186803b1580156110ed57600080fd5b505afa158015611101573d6000803e3d6000fd5b505050506040513d601f19601f820116820180604052508101906111259190611d30565b61112f9190612281565b9050838383839750975097509750505050509193509193565b600080600080600160009054906101000a900473ffffffffffffffffffffffffffffffffffffffff1673ffffffffffffffffffffffffffffffffffffffff166392158d92866040518263ffffffff1660e01b81526004016111a99190612144565b60206040518083038186803b1580156111c157600080fd5b505afa1580156111d5573d6000803e3d6000fd5b505050506040513d601f19601f820116820180604052508101906111f99190611d30565b600160009054906101000a900473ffffffffffffffffffffffffffffffffffffffff1673ffffffffffffffffffffffffffffffffffffffff1663e83199e8876040518263ffffffff1660e01b81526004016112549190612144565b60206040518083038186803b15801561126c57600080fd5b505afa158015611280573d6000803e3d6000fd5b505050506040513d601f19601f820116820180604052508101906112a49190611d30565b600160009054906101000a900473ffffffffffffffffffffffffffffffffffffffff1673ffffffffffffffffffffffffffffffffffffffff16635a4dd47d886040518263ffffffff1660e01b81526004016112ff9190612144565b60206040518083038186803b15801561131757600080fd5b505afa15801561132b573d6000803e3d6000fd5b505050506040513d601f19601f8201168201806040525081019061134f9190611d30565b600160009054906101000a900473ffffffffffffffffffffffffffffffffffffffff1673ffffffffffffffffffffffffffffffffffffffff166370d11225896040518263ffffffff1660e01b81526004016113aa9190612144565b60206040518083038186803b1580156113c257600080fd5b505afa1580156113d6573d6000803e3d6000fd5b505050506040513d601f19601f820116820180604052508101906113fa9190611d30565b93509350935093509193509193565b60008054906101000a900473ffffffffffffffffffffffffffffffffffffffff1681565b600080828461143c919061222b565b905080600160009054906101000a900473ffffffffffffffffffffffffffffffffffffffff1673ffffffffffffffffffffffffffffffffffffffff16635a4dd47d866040518263ffffffff1660e01b815260040161149a9190612144565b60206040518083038186803b1580156114b257600080fd5b505afa1580156114c6573d6000803e3d6000fd5b505050506040513d601f19601f820116820180604052508101906114ea9190611d30565b6114f49190612281565b91505092915050565b60046020528060005260406000206000915090508060000154908060010154905082565b6000600260009054906101000a900473ffffffffffffffffffffffffffffffffffffffff1673ffffffffffffffffffffffffffffffffffffffff1663a422cd476040518163ffffffff1660e01b815260040160206040518083038186803b15801561158b57600080fd5b505afa15801561159f573d6000803e3d6000fd5b505050506040513d601f19601f820116820180604052508101906115c39190611d30565b905090565b6000600354905090565b60008054906101000a900473ffffffffffffffffffffffffffffffffffffffff1673ffffffffffffffffffffffffffffffffffffffff163373ffffffffffffffffffffffffffffffffffffffff1614156116d757600073ffffffffffffffffffffffffffffffffffffffff168173ffffffffffffffffffffffffffffffffffffffff161415611696576040517f08c379a000000000000000000000000000000000000000000000000000000000815260040161168d90612124565b60405180910390fd5b806000806101000a81548173ffffffffffffffffffffffffffffffffffffffff021916908373ffffffffffffffffffffffffffffffffffffffff1602179055505b50565b6000806116e78484610351565b90506001151581151514611730576040517f08c379a000000000000000000000000000000000000000000000000000000000815260040161172790612104565b60405180910390fd5b600061173a6115c8565b90508460046000838152602001908152602001600020600001819055508360046000838152602001908152602001600020600101819055507f5f785dc568450f2343f05d5c18db798b42d62cf3bf885d3a3020df50b7819c783386866040516117a593929190611fb8565b60405180910390a16117b5610f6a565b60019250505092915050565b6000600160009054906101000a900473ffffffffffffffffffffffffffffffffffffffff1673ffffffffffffffffffffffffffffffffffffffff1663df9b2ff56040518163ffffffff1660e01b815260040160206040518083038186803b15801561182b57600080fd5b505afa15801561183f573d6000803e3d6000fd5b505050506040513d601f19601f820116820180604052508101906118639190611d30565b905090565b606060008273ffffffffffffffffffffffffffffffffffffffff1660001b905060006040518060400160405280601081526020017f303132333435363738396162636465660000000000000000000000000000000081525090506000602a67ffffffffffffffff8111156118df576118de6123fd565b5b6040519080825280601f01601f1916602001820160405280156119115781602001600182028036833780820191505090505b5090507f300000000000000000000000000000000000000000000000000000000000000081600081518110611949576119486123ce565b5b60200101907effffffffffffffffffffffffffffffffffffffffffffffffffffffffffffff1916908160001a9053507f7800000000000000000000000000000000000000000000000000000000000000816001815181106119ad576119ac6123ce565b5b60200101907effffffffffffffffffffffffffffffffffffffffffffffffffffffffffffff1916908160001a90535060005b6014811015611b675782600485600c846119f9919061222b565b60208110611a0a57611a096123ce565b5b1a60f81b7effffffffffffffffffffffffffffffffffffffffffffffffffffffffffffff1916901c60f81c60ff1681518110611a4957611a486123ce565b5b602001015160f81c60f81b82600283611a629190612281565b6002611a6e919061222b565b81518110611a7f57611a7e6123ce565b5b60200101907effffffffffffffffffffffffffffffffffffffffffffffffffffffffffffff1916908160001a90535082600f60f81b85600c84611ac2919061222b565b60208110611ad357611ad26123ce565b5b1a60f81b1660f81c60ff1681518110611aef57611aee6123ce565b5b602001015160f81c60f81b82600283611b089190612281565b6003611b14919061222b565b81518110611b2557611b246123ce565b5b60200101907effffffffffffffffffffffffffffffffffffffffffffffffffffffffffffff1916908160001a9053508080611b5f90612356565b9150506119df565b50809350505050919050565b600081359050611b8281612645565b92915050565b600081519050611b9781612645565b92915050565b600081359050611bac8161265c565b92915050565b600081519050611bc18161265c565b92915050565b600060208284031215611bdd57611bdc61242c565b5b6000611beb84828501611b73565b91505092915050565b600060208284031215611c0a57611c0961242c565b5b6000611c1884828501611b88565b91505092915050565b60008060008060808587031215611c3b57611c3a61242c565b5b6000611c4987828801611b73565b9450506020611c5a87828801611b9d565b9350506040611c6b87828801611b9d565b9250506060611c7c87828801611b9d565b91505092959194509250565b600080600080600060a08688031215611ca457611ca361242c565b5b6000611cb288828901611b73565b9550506020611cc388828901611b9d565b9450506040611cd488828901611b9d565b9350506060611ce588828901611b9d565b9250506080611cf688828901611b9d565b9150509295509295909350565b600060208284031215611d1957611d1861242c565b5b6000611d2784828501611b9d565b91505092915050565b600060208284031215611d4657611d4561242c565b5b6000611d5484828501611bb2565b91505092915050565b60008060408385031215611d7457611d7361242c565b5b6000611d8285828601611b9d565b9250506020611d9385828601611b9d565b9150509250929050565b611da6816122db565b82525050565b611db5816122ed565b82525050565b6000611dc682612204565b611dd0818561220f565b9350611de0818560208601612323565b611de981612431565b840191505092915050565b6000611dff82612204565b611e098185612220565b9350611e19818560208601612323565b80840191505092915050565b6000611e3260218361220f565b9150611e3d82612442565b604082019050919050565b6000611e55602f83612220565b9150611e6082612491565b602f82019050919050565b6000611e78602b8361220f565b9150611e83826124e0565b604082019050919050565b6000611e9b604e8361220f565b9150611ea68261252f565b606082019050919050565b6000611ebe60128361220f565b9150611ec9826125a4565b602082019050919050565b6000611ee1600a83612220565b9150611eec826125cd565b600a82019050919050565b6000611f04603083612220565b9150611f0f826125f6565b603082019050919050565b611f2381612319565b82525050565b6000611f3482611e48565b9150611f408285611df4565b9150611f4b82611ed4565b9150611f578284611df4565b91508190509392505050565b6000611f6e82611ef7565b9150611f7a8285611df4565b9150611f8582611ed4565b9150611f918284611df4565b91508190509392505050565b6000602082019050611fb26000830184611d9d565b92915050565b6000606082019050611fcd6000830186611d9d565b611fda6020830185611f1a565b611fe76040830184611f1a565b949350505050565b60006080820190506120046000830187611d9d565b6120116020830186611f1a565b61201e6040830185611f1a565b61202b6060830184611f1a565b95945050505050565b600060a0820190506120496000830188611d9d565b6120566020830187611f1a565b6120636040830186611f1a565b6120706060830185611f1a565b61207d6080830184611f1a565b9695505050505050565b600060208201905061209c6000830184611dac565b92915050565b600060208201905081810360008301526120bc8184611dbb565b905092915050565b600060208201905081810360008301526120dd81611e25565b9050919050565b600060208201905081810360008301526120fd81611e6b565b9050919050565b6000602082019050818103600083015261211d81611e8e565b9050919050565b6000602082019050818103600083015261213d81611eb1565b9050919050565b60006020820190506121596000830184611f1a565b92915050565b60006040820190506121746000830185611f1a565b6121816020830184611f1a565b9392505050565b600060608201905061219d6000830186611f1a565b6121aa6020830185611f1a565b6121b76040830184611f1a565b949350505050565b60006080820190506121d46000830187611f1a565b6121e16020830186611f1a565b6121ee6040830185611f1a565b6121fb6060830184611f1a565b95945050505050565b600081519050919050565b600082825260208201905092915050565b600081905092915050565b600061223682612319565b915061224183612319565b9250827fffffffffffffffffffffffffffffffffffffffffffffffffffffffffffffffff038211156122765761227561239f565b5b828201905092915050565b600061228c82612319565b915061229783612319565b9250817fffffffffffffffffffffffffffffffffffffffffffffffffffffffffffffffff04831182151516156122d0576122cf61239f565b5b828202905092915050565b60006122e6826122f9565b9050919050565b60008115159050919050565b600073ffffffffffffffffffffffffffffffffffffffff82169050919050565b6000819050919050565b60005b83811015612341578082015181840152602081019050612326565b83811115612350576000848401525b50505050565b600061236182612319565b91507fffffffffffffffffffffffffffffffffffffffffffffffffffffffffffffffff8214156123945761239361239f565b5b600182019050919050565b7f4e487b7100000000000000000000000000000000000000000000000000000000600052601160045260246000fd5b7f4e487b7100000000000000000000000000000000000000000000000000000000600052603260045260246000fd5b7f4e487b7100000000000000000000000000000000000000000000000000000000600052604160045260246000fd5b600080fd5b6000601f19601f8301169050919050565b7f496e636f6e73697374656e6420656e746572656420686569676874206461746160008201527f2e00000000000000000000000000000000000000000000000000000000000000602082015250565b7f53656e6465722073686f756c6420626520746865206f776e6572206f6620746860008201527f6520706c6f742e204f776e65723a200000000000000000000000000000000000602082015250565b7f496e636f6e73697374656e7420656e746572656420616c6c6f7761626c65206860008201527f656967687420646174612e000000000000000000000000000000000000000000602082015250565b7f46756d69676174696f6e206e6f742076616c6964617465642c20636865636b2060008201527f74686520706172616d65746572697a6174696f6e206f66207468652064726f6e60208201527f6520616e642f6f7220706c6f742e000000000000000000000000000000000000604082015250565b7f496e636f72726563742061646472657373210000000000000000000000000000600082015250565b7f2e2053656e6465723a2000000000000000000000000000000000000000000000600082015250565b7f53656e6465722073686f756c6420626520746865206f776e6572206f6620746860008201527f652064726f6e652e204f776e65723a2000000000000000000000000000000000602082015250565b61264e816122db565b811461265957600080fd5b50565b61266581612319565b811461267057600080fd5b5056fea264697066735822122026c17933750f664107dd3ecb5f49954392af81c43354ac8bbe818df6d57a2aef64736f6c63430008050033",
  "immutableReferences": {},
  "source": "///\n/// @title TFE Blockchain\n/// @author Iaki Balaguer Baeras\n/// @notice Blockchain-based drone plot fumigation system\n///\n\n// SPDX-License-Identifier: MIT\npragma solidity ^0.8.0;\n\nimport \"./FumigationToken.sol\";\nimport \"./DroneToken.sol\";\nimport \"./PlotToken.sol\";\nimport \"./Ownable.sol\";\nimport \"@openzeppelin/contracts/token/ERC721/IERC721Receiver.sol\";\nimport \"@openzeppelin/contracts/token/ERC721/IERC721.sol\";\n\n///\n/// @notice Fumigation Smart Contract\n///\ncontract Fumigation is Ownable {\n\n    struct atributtesFumigation{\n        uint256 droneId;\n        uint256 plotId;\n    }\n\n    DroneToken drone;\n    PlotToken plot;\n\n    uint256 private lastFumigationId = 1;\n    mapping(uint256  => atributtesFumigation) public fumigationList;\n\n    constructor(address _addressTokenDrone, address _addressTokenPlot)  {\n        \n        drone = DroneToken(_addressTokenDrone);\n        plot = PlotToken(_addressTokenPlot);\n\n    }\n\n    ///\n    /// @notice Create a new drone\n    ///\n    function newDrone(address _owner, uint256 _minimumHeight, uint256 _maximumHeight, uint256 _cost, uint256 _pesticide) external returns(uint256) {  \n        require (drone.owner() == _owner, string(abi.encodePacked(\"Sender should be the owner of the drone. Owner: \", addressToString(drone.owner()),\". Sender: \", addressToString(_owner))));\n        require(_minimumHeight < _maximumHeight, \"Inconsistend entered height data.\");\n        uint256 newDroneId = drone.mint(_owner, _minimumHeight, _maximumHeight, _cost, _pesticide);\n\n        return newDroneId;\n    }\n  \n    ///\n    /// @notice Create a new plot\n    ///\n    function newPlot(address _owner, uint256 _minimumHeightAllowed, uint256 _maximumHeightAllowed, uint256 _acceptedPesticide) external returns(uint256 result) {  \n        require (plot.owner() == _owner, string(abi.encodePacked(\"Sender should be the owner of the plot. Owner: \", addressToString(plot.owner()),\". Sender: \", addressToString(_owner))));\n        //require (_owner == msg.sender, string(abi.encodePacked(\"Sender should be the owner of the plot. Owner: \", addressToString(_owner),\". Sender: \", addressToString(msg.sender))));\n        require(_minimumHeightAllowed < _maximumHeightAllowed, \"Inconsistent entered allowable height data.\");\n        uint256 newPlotId = plot.mint(_owner, _minimumHeightAllowed, _maximumHeightAllowed, _acceptedPesticide);\n\n        return newPlotId;\n    }\n\n    ///\n    /// @notice Create a new fumigation\n    ///\n    event newFumigationEvent(address owner, uint256  droneId, uint256 plotId);\n    function newFumigation (uint256 _droneId, uint256 _plotId) external returns (bool result) {\n\t\tbool fumigationAllowed = fumigationValidation(_droneId, _plotId);\n        require (fumigationAllowed == true, \"Fumigation not validated, check the parameterization of the drone and/or plot.\");\n        \n        uint256 fumigationId = getLastFumigationId();\n\n        fumigationList[fumigationId].droneId = _droneId;\n        fumigationList[fumigationId].plotId = _plotId;  \n        emit newFumigationEvent(msg.sender, _droneId, _plotId);\n\n        setLastFumigationId();\n\n        return true;\n    }\n\n    ///\n    /// @notice Drone and plot compatibility validations\n    ///\n    function fumigationValidation (uint256 _droneId, uint256 _plotId) public view returns (bool result) {\n\t\tbool fumigationAllowed = true;\n\n        if (drone.getMinimumHeight(_droneId) < plot.getMinimumHeightAllowed(_plotId)){\n\t\t\tfumigationAllowed = false;\n\t\t}\n\t\tif (drone.getMaximumHeight(_droneId) > plot.getMaximumHeightAllowed(_plotId)){\n\t\t\tfumigationAllowed = false;\n\t\t}\n\n        if (drone.getPesticide(_droneId) != plot.getAcceptedPesticide(_plotId)) {\n            fumigationAllowed = false;\n        }\n            \n        return fumigationAllowed;\n    }\n\n    ///\n    /// @notice Calculate fumigation cost\n    ///\n    function fumigationCost (uint256 _droneId, uint256 _plotId) external view returns (uint256 result) {\n        uint256 flightFactor = (_droneId + _plotId);\n\n        return (drone.getCost(_droneId) * flightFactor);\n    }\n\n    ///\n    /// @notice Additional functions\n    ///\n\tfunction infoDrone(uint256 droneId)  external view returns (uint256 _minimumHeight, uint256 _maximumHeight, uint256 _cost, uint256 _pesticide)\t{\n\t\treturn (drone.getMinimumHeight(droneId), drone.getMaximumHeight(droneId), drone.getCost(droneId), drone.getPesticide(droneId));\n\t}\n\n\tfunction infoPlot(uint256 plotId) external view returns (uint256 _minimumHeightAllowed, uint256 _maximumHeightAllowed, uint256 _acceptedPesticide) {\n\t\treturn (plot.getMinimumHeightAllowed(plotId), plot.getMaximumHeightAllowed(plotId), plot.getAcceptedPesticide(plotId));\n\t}\n\n    function getTotalDrones() external view returns(uint256 numTotalDrones)  {\n        return (drone.getLastDroneTokenId());\n    }\n\n    function getTotalPlots() external view returns(uint256 numTotalPlots)  {\n        return (plot.getLastPlotTokenId());\n    }\n\n    function setLastFumigationId() public {\n       lastFumigationId = lastFumigationId + 1;\n    }\n\n    function getLastFumigationId() public view returns (uint256 result) {\n        return lastFumigationId;\n    }\n\n    function infoFumigation(uint256 fumigationId) external view returns (uint256 _droneId, uint256 _plotId, uint256 _pesticide, uint256 _cost) {\n\t\tuint256 droneId = fumigationList[fumigationId].droneId;\n        uint256 plotId = fumigationList[fumigationId].plotId;\n        uint256 pesticide = drone.getPesticide(droneId);\n        uint256 cost = drone.getCost(droneId) * (droneId + plotId);\n\n\t\treturn (droneId, plotId, pesticide, cost);\n\t}\n\n    function addressToString(address _address) internal pure returns(string memory) {\n        bytes32 _bytes = bytes32(uint256(uint160(_address)));\n        bytes memory HEX = \"0123456789abcdef\";\n        bytes memory _string = new bytes(42);\n        _string[0] = '0';\n        _string[1] = 'x';\n            for(uint i = 0; i < 20; i++) {\n                _string[2+i*2] = HEX[uint8(_bytes[i + 12] >> 4)];\n                _string[3+i*2] = HEX[uint8(_bytes[i + 12] & 0x0f)];\n            }\n\n        return string(_string);\n    }\n}",
  "sourcePath": "/home/ubuntu/tfe-blockchain/contracts/Fumigation.sol",
  "compiler": {
    "name": "solc",
    "version": "0.8.5+commit.a4f2e591.Emscripten.clang"
  },
  "schemaVersion": "3.4.7",
  "updatedAt": "2022-07-04T18:45:31.230Z",
  "networkType": "ethereum",
  "devdoc": {
    "kind": "dev",
    "methods": {},
    "version": 1
  },
  "userdoc": {
    "events": {
      "newFumigationEvent(address,uint256,uint256)": {
        "notice": "Create a new fumigation"
      }
    },
    "kind": "user",
    "methods": {
      "fumigationCost(uint256,uint256)": {
        "notice": "Calculate fumigation cost"
      },
      "fumigationValidation(uint256,uint256)": {
        "notice": "Drone and plot compatibility validations"
      },
      "infoDrone(uint256)": {
        "notice": "Additional functions"
      },
      "newDrone(address,uint256,uint256,uint256,uint256)": {
        "notice": "Create a new drone"
      },
      "newPlot(address,uint256,uint256,uint256)": {
        "notice": "Create a new plot"
      }
    },
    "notice": "Fumigation Smart Contract",
    "version": 1
  }
}