{
  "contractName": "PlotToken",
  "abi": [
    {
      "inputs": [
        {
          "internalType": "string",
          "name": "name_",
          "type": "string"
        },
        {
          "internalType": "string",
          "name": "symbol_",
          "type": "string"
        }
      ],
      "stateMutability": "nonpayable",
      "type": "constructor"
    },
    {
      "anonymous": false,
      "inputs": [
        {
          "indexed": true,
          "internalType": "address",
          "name": "owner",
          "type": "address"
        },
        {
          "indexed": true,
          "internalType": "address",
          "name": "approved",
          "type": "address"
        },
        {
          "indexed": true,
          "internalType": "uint256",
          "name": "tokenId",
          "type": "uint256"
        }
      ],
      "name": "Approval",
      "type": "event"
    },
    {
      "anonymous": false,
      "inputs": [
        {
          "indexed": true,
          "internalType": "address",
          "name": "owner",
          "type": "address"
        },
        {
          "indexed": true,
          "internalType": "address",
          "name": "operator",
          "type": "address"
        },
        {
          "indexed": false,
          "internalType": "bool",
          "name": "approved",
          "type": "bool"
        }
      ],
      "name": "ApprovalForAll",
      "type": "event"
    },
    {
      "anonymous": false,
      "inputs": [
        {
          "indexed": true,
          "internalType": "address",
          "name": "from",
          "type": "address"
        },
        {
          "indexed": true,
          "internalType": "address",
          "name": "to",
          "type": "address"
        },
        {
          "indexed": true,
          "internalType": "uint256",
          "name": "tokenId",
          "type": "uint256"
        }
      ],
      "name": "Transfer",
      "type": "event"
    },
    {
      "anonymous": false,
      "inputs": [
        {
          "indexed": false,
          "internalType": "uint256",
          "name": "plotId",
          "type": "uint256"
        },
        {
          "indexed": false,
          "internalType": "address",
          "name": "to",
          "type": "address"
        },
        {
          "indexed": false,
          "internalType": "address",
          "name": "me",
          "type": "address"
        }
      ],
      "name": "mintPlote",
      "type": "event"
    },
    {
      "inputs": [
        {
          "internalType": "address",
          "name": "to",
          "type": "address"
        },
        {
          "internalType": "uint256",
          "name": "tokenId",
          "type": "uint256"
        }
      ],
      "name": "approve",
      "outputs": [],
      "stateMutability": "nonpayable",
      "type": "function"
    },
    {
      "inputs": [
        {
          "internalType": "address",
          "name": "owner",
          "type": "address"
        }
      ],
      "name": "balanceOf",
      "outputs": [
        {
          "internalType": "uint256",
          "name": "",
          "type": "uint256"
        }
      ],
      "stateMutability": "view",
      "type": "function",
      "constant": true
    },
    {
      "inputs": [
        {
          "internalType": "uint256",
          "name": "tokenId",
          "type": "uint256"
        }
      ],
      "name": "getApproved",
      "outputs": [
        {
          "internalType": "address",
          "name": "",
          "type": "address"
        }
      ],
      "stateMutability": "view",
      "type": "function",
      "constant": true
    },
    {
      "inputs": [
        {
          "internalType": "address",
          "name": "owner",
          "type": "address"
        },
        {
          "internalType": "address",
          "name": "operator",
          "type": "address"
        }
      ],
      "name": "isApprovedForAll",
      "outputs": [
        {
          "internalType": "bool",
          "name": "",
          "type": "bool"
        }
      ],
      "stateMutability": "view",
      "type": "function",
      "constant": true
    },
    {
      "inputs": [],
      "name": "name",
      "outputs": [
        {
          "internalType": "string",
          "name": "",
          "type": "string"
        }
      ],
      "stateMutability": "view",
      "type": "function",
      "constant": true
    },
    {
      "inputs": [],
      "name": "owner",
      "outputs": [
        {
          "internalType": "address",
          "name": "",
          "type": "address"
        }
      ],
      "stateMutability": "view",
      "type": "function",
      "constant": true
    },
    {
      "inputs": [
        {
          "internalType": "uint256",
          "name": "tokenId",
          "type": "uint256"
        }
      ],
      "name": "ownerOf",
      "outputs": [
        {
          "internalType": "address",
          "name": "",
          "type": "address"
        }
      ],
      "stateMutability": "view",
      "type": "function",
      "constant": true
    },
    {
      "inputs": [
        {
          "internalType": "uint256",
          "name": "",
          "type": "uint256"
        }
      ],
      "name": "plotList",
      "outputs": [
        {
          "internalType": "uint256",
          "name": "minimumHeightAllowed",
          "type": "uint256"
        },
        {
          "internalType": "uint256",
          "name": "maximumHeightAllowed",
          "type": "uint256"
        },
        {
          "internalType": "uint256",
          "name": "acceptedPesticide",
          "type": "uint256"
        }
      ],
      "stateMutability": "view",
      "type": "function",
      "constant": true
    },
    {
      "inputs": [
        {
          "internalType": "address",
          "name": "from",
          "type": "address"
        },
        {
          "internalType": "address",
          "name": "to",
          "type": "address"
        },
        {
          "internalType": "uint256",
          "name": "tokenId",
          "type": "uint256"
        }
      ],
      "name": "safeTransferFrom",
      "outputs": [],
      "stateMutability": "nonpayable",
      "type": "function"
    },
    {
      "inputs": [
        {
          "internalType": "address",
          "name": "from",
          "type": "address"
        },
        {
          "internalType": "address",
          "name": "to",
          "type": "address"
        },
        {
          "internalType": "uint256",
          "name": "tokenId",
          "type": "uint256"
        },
        {
          "internalType": "bytes",
          "name": "_data",
          "type": "bytes"
        }
      ],
      "name": "safeTransferFrom",
      "outputs": [],
      "stateMutability": "nonpayable",
      "type": "function"
    },
    {
      "inputs": [
        {
          "internalType": "address",
          "name": "operator",
          "type": "address"
        },
        {
          "internalType": "bool",
          "name": "approved",
          "type": "bool"
        }
      ],
      "name": "setApprovalForAll",
      "outputs": [],
      "stateMutability": "nonpayable",
      "type": "function"
    },
    {
      "inputs": [],
      "name": "symbol",
      "outputs": [
        {
          "internalType": "string",
          "name": "",
          "type": "string"
        }
      ],
      "stateMutability": "view",
      "type": "function",
      "constant": true
    },
    {
      "inputs": [
        {
          "internalType": "uint256",
          "name": "index",
          "type": "uint256"
        }
      ],
      "name": "tokenByIndex",
      "outputs": [
        {
          "internalType": "uint256",
          "name": "",
          "type": "uint256"
        }
      ],
      "stateMutability": "view",
      "type": "function",
      "constant": true
    },
    {
      "inputs": [
        {
          "internalType": "address",
          "name": "owner",
          "type": "address"
        },
        {
          "internalType": "uint256",
          "name": "index",
          "type": "uint256"
        }
      ],
      "name": "tokenOfOwnerByIndex",
      "outputs": [
        {
          "internalType": "uint256",
          "name": "",
          "type": "uint256"
        }
      ],
      "stateMutability": "view",
      "type": "function",
      "constant": true
    },
    {
      "inputs": [
        {
          "internalType": "uint256",
          "name": "tokenId",
          "type": "uint256"
        }
      ],
      "name": "tokenURI",
      "outputs": [
        {
          "internalType": "string",
          "name": "",
          "type": "string"
        }
      ],
      "stateMutability": "view",
      "type": "function",
      "constant": true
    },
    {
      "inputs": [],
      "name": "totalSupply",
      "outputs": [
        {
          "internalType": "uint256",
          "name": "",
          "type": "uint256"
        }
      ],
      "stateMutability": "view",
      "type": "function",
      "constant": true
    },
    {
      "inputs": [
        {
          "internalType": "address",
          "name": "from",
          "type": "address"
        },
        {
          "internalType": "address",
          "name": "to",
          "type": "address"
        },
        {
          "internalType": "uint256",
          "name": "tokenId",
          "type": "uint256"
        }
      ],
      "name": "transferFrom",
      "outputs": [],
      "stateMutability": "nonpayable",
      "type": "function"
    },
    {
      "inputs": [
        {
          "internalType": "address",
          "name": "newOwner",
          "type": "address"
        }
      ],
      "name": "transferOwnership",
      "outputs": [],
      "stateMutability": "nonpayable",
      "type": "function"
    },
    {
      "inputs": [
        {
          "internalType": "address",
          "name": "_owner",
          "type": "address"
        },
        {
          "internalType": "uint256",
          "name": "_minimumHeightAllowed",
          "type": "uint256"
        },
        {
          "internalType": "uint256",
          "name": "_maximumHeightAllowed",
          "type": "uint256"
        },
        {
          "internalType": "uint256",
          "name": "_acceptedPesticide",
          "type": "uint256"
        }
      ],
      "name": "mint",
      "outputs": [
        {
          "internalType": "uint256",
          "name": "result",
          "type": "uint256"
        }
      ],
      "stateMutability": "nonpayable",
      "type": "function"
    },
    {
      "inputs": [],
      "name": "setLastPlotTokenId",
      "outputs": [],
      "stateMutability": "nonpayable",
      "type": "function"
    },
    {
      "inputs": [],
      "name": "getLastPlotTokenId",
      "outputs": [
        {
          "internalType": "uint256",
          "name": "",
          "type": "uint256"
        }
      ],
      "stateMutability": "view",
      "type": "function",
      "constant": true
    },
    {
      "inputs": [
        {
          "internalType": "uint256",
          "name": "plotId",
          "type": "uint256"
        }
      ],
      "name": "getMinimumHeightAllowed",
      "outputs": [
        {
          "internalType": "uint256",
          "name": "",
          "type": "uint256"
        }
      ],
      "stateMutability": "view",
      "type": "function",
      "constant": true
    },
    {
      "inputs": [
        {
          "internalType": "uint256",
          "name": "plotId",
          "type": "uint256"
        }
      ],
      "name": "getMaximumHeightAllowed",
      "outputs": [
        {
          "internalType": "uint256",
          "name": "",
          "type": "uint256"
        }
      ],
      "stateMutability": "view",
      "type": "function",
      "constant": true
    },
    {
      "inputs": [
        {
          "internalType": "uint256",
          "name": "plotId",
          "type": "uint256"
        }
      ],
      "name": "getAcceptedPesticide",
      "outputs": [
        {
          "internalType": "uint256",
          "name": "acceptedPesticide",
          "type": "uint256"
        }
      ],
      "stateMutability": "view",
      "type": "function",
      "constant": true
    },
    {
      "inputs": [
        {
          "internalType": "bytes4",
          "name": "interfaceId",
          "type": "bytes4"
        }
      ],
      "name": "supportsInterface",
      "outputs": [
        {
          "internalType": "bool",
          "name": "",
          "type": "bool"
        }
      ],
      "stateMutability": "view",
      "type": "function",
      "constant": true
    }
  ],
  "bytecode": "0x60806040526001600b553480156200001657600080fd5b50604051620038183803806200381883398181016040528101906200003c9190620001e9565b8181816000908051906020019062000056929190620000bb565b5080600190805190602001906200006f929190620000bb565b50505033600a60006101000a81548173ffffffffffffffffffffffffffffffffffffffff021916908373ffffffffffffffffffffffffffffffffffffffff1602179055505050620003f2565b828054620000c99062000303565b90600052602060002090601f016020900481019282620000ed576000855562000139565b82601f106200010857805160ff191683800117855562000139565b8280016001018555821562000139579182015b82811115620001385782518255916020019190600101906200011b565b5b5090506200014891906200014c565b5090565b5b80821115620001675760008160009055506001016200014d565b5090565b6000620001826200017c8462000297565b6200026e565b905082815260208101848484011115620001a157620001a0620003d2565b5b620001ae848285620002cd565b509392505050565b600082601f830112620001ce57620001cd620003cd565b5b8151620001e08482602086016200016b565b91505092915050565b60008060408385031215620002035762000202620003dc565b5b600083015167ffffffffffffffff811115620002245762000223620003d7565b5b6200023285828601620001b6565b925050602083015167ffffffffffffffff811115620002565762000255620003d7565b5b6200026485828601620001b6565b9150509250929050565b60006200027a6200028d565b905062000288828262000339565b919050565b6000604051905090565b600067ffffffffffffffff821115620002b557620002b46200039e565b5b620002c082620003e1565b9050602081019050919050565b60005b83811015620002ed578082015181840152602081019050620002d0565b83811115620002fd576000848401525b50505050565b600060028204905060018216806200031c57607f821691505b602082108114156200033357620003326200036f565b5b50919050565b6200034482620003e1565b810181811067ffffffffffffffff821117156200036657620003656200039e565b5b80604052505050565b7f4e487b7100000000000000000000000000000000000000000000000000000000600052602260045260246000fd5b7f4e487b7100000000000000000000000000000000000000000000000000000000600052604160045260246000fd5b600080fd5b600080fd5b600080fd5b600080fd5b6000601f19601f8301169050919050565b61341680620004026000396000f3fe608060405234801561001057600080fd5b50600436106101735760003560e01c806370a08231116100de578063a647e8ec11610097578063c87b56dd11610071578063c87b56dd146104ac578063e985e9c5146104dc578063f2fde38b1461050c578063f6c4d4ca1461052857610173565b8063a647e8ec14610430578063aa1a73a614610460578063b88d4fde1461049057610173565b806370a082311461035a5780638da5cb5b1461038a57806395d89b41146103a8578063a22cb465146103c6578063a422cd47146103e2578063a499e3581461040057610173565b806323b872dd1161013057806323b872dd146102605780632f745c591461027c57806333c4ddc7146102ac57806342842e0e146102de5780634f6ccce7146102fa5780636352211e1461032a57610173565b806301ffc9a71461017857806306fdde03146101a8578063081812fc146101c6578063095ea7b3146101f6578063104dd1a01461021257806318160ddd14610242575b600080fd5b610192600480360381019061018d919061239c565b610532565b60405161019f91906127d1565b60405180910390f35b6101b0610544565b6040516101bd91906127ec565b60405180910390f35b6101e060048036038101906101db91906123f6565b6105d6565b6040516101ed919061276a565b60405180910390f35b610210600480360381019061020b91906122f5565b61065b565b005b61022c600480360381019061022791906123f6565b610773565b6040516102399190612a2e565b60405180910390f35b61024a610793565b6040516102579190612a2e565b60405180910390f35b61027a600480360381019061027591906121df565b6107a0565b005b610296600480360381019061029191906122f5565b610800565b6040516102a39190612a2e565b60405180910390f35b6102c660048036038101906102c191906123f6565b6108a5565b6040516102d593929190612a80565b60405180910390f35b6102f860048036038101906102f391906121df565b6108cf565b005b610314600480360381019061030f91906123f6565b6108ef565b6040516103219190612a2e565b60405180910390f35b610344600480360381019061033f91906123f6565b610960565b604051610351919061276a565b60405180910390f35b610374600480360381019061036f9190612172565b610a12565b6040516103819190612a2e565b60405180910390f35b610392610aca565b60405161039f919061276a565b60405180910390f35b6103b0610af0565b6040516103bd91906127ec565b60405180910390f35b6103e060048036038101906103db91906122b5565b610b82565b005b6103ea610b98565b6040516103f79190612a2e565b60405180910390f35b61041a600480360381019061041591906123f6565b610ba2565b6040516104279190612a2e565b60405180910390f35b61044a60048036038101906104459190612335565b610bc2565b6040516104579190612a2e565b60405180910390f35b61047a600480360381019061047591906123f6565b610c79565b6040516104879190612a2e565b60405180910390f35b6104aa60048036038101906104a59190612232565b610c99565b005b6104c660048036038101906104c191906123f6565b610cfb565b6040516104d391906127ec565b60405180910390f35b6104f660048036038101906104f1919061219f565b610da2565b60405161050391906127d1565b60405180910390f35b61052660048036038101906105219190612172565b610e36565b005b610530610f41565b005b600061053d82610f58565b9050919050565b60606000805461055390612cc1565b80601f016020809104026020016040519081016040528092919081815260200182805461057f90612cc1565b80156105cc5780601f106105a1576101008083540402835291602001916105cc565b820191906000526020600020905b8154815290600101906020018083116105af57829003601f168201915b5050505050905090565b60006105e182610fd2565b610620576040517f08c379a00000000000000000000000000000000000000000000000000000000081526004016106179061296e565b60405180910390fd5b6004600083815260200190815260200160002060009054906101000a900473ffffffffffffffffffffffffffffffffffffffff169050919050565b600061066682610960565b90508073ffffffffffffffffffffffffffffffffffffffff168373ffffffffffffffffffffffffffffffffffffffff1614156106d7576040517f08c379a00000000000000000000000000000000000000000000000000000000081526004016106ce906129ae565b60405180910390fd5b8073ffffffffffffffffffffffffffffffffffffffff166106f661103e565b73ffffffffffffffffffffffffffffffffffffffff16148061072557506107248161071f61103e565b610da2565b5b610764576040517f08c379a000000000000000000000000000000000000000000000000000000000815260040161075b906128ee565b60405180910390fd5b61076e8383611046565b505050565b6000600c6000838152602001908152602001600020600201549050919050565b6000600880549050905090565b6107b16107ab61103e565b826110ff565b6107f0576040517f08c379a00000000000000000000000000000000000000000000000000000000081526004016107e7906129ce565b60405180910390fd5b6107fb8383836111dd565b505050565b600061080b83610a12565b821061084c576040517f08c379a00000000000000000000000000000000000000000000000000000000081526004016108439061280e565b60405180910390fd5b600660008473ffffffffffffffffffffffffffffffffffffffff1673ffffffffffffffffffffffffffffffffffffffff168152602001908152602001600020600083815260200190815260200160002054905092915050565b600c6020528060005260406000206000915090508060000154908060010154908060020154905083565b6108ea83838360405180602001604052806000815250610c99565b505050565b60006108f9610793565b821061093a576040517f08c379a0000000000000000000000000000000000000000000000000000000008152600401610931906129ee565b60405180910390fd5b6008828154811061094e5761094d612e5a565b5b90600052602060002001549050919050565b6000806002600084815260200190815260200160002060009054906101000a900473ffffffffffffffffffffffffffffffffffffffff169050600073ffffffffffffffffffffffffffffffffffffffff168173ffffffffffffffffffffffffffffffffffffffff161415610a09576040517f08c379a0000000000000000000000000000000000000000000000000000000008152600401610a009061292e565b60405180910390fd5b80915050919050565b60008073ffffffffffffffffffffffffffffffffffffffff168273ffffffffffffffffffffffffffffffffffffffff161415610a83576040517f08c379a0000000000000000000000000000000000000000000000000000000008152600401610a7a9061290e565b60405180910390fd5b600360008373ffffffffffffffffffffffffffffffffffffffff1673ffffffffffffffffffffffffffffffffffffffff168152602001908152602001600020549050919050565b600a60009054906101000a900473ffffffffffffffffffffffffffffffffffffffff1681565b606060018054610aff90612cc1565b80601f0160208091040260200160405190810160405280929190818152602001828054610b2b90612cc1565b8015610b785780601f10610b4d57610100808354040283529160200191610b78565b820191906000526020600020905b815481529060010190602001808311610b5b57829003601f168201915b5050505050905090565b610b94610b8d61103e565b8383611444565b5050565b6000600b54905090565b6000600c6000838152602001908152602001600020600101549050919050565b600080610bcd610b98565b905084600c60008381526020019081526020016000206000018190555083600c60008381526020019081526020016000206001018190555082600c6000838152602001908152602001600020600201819055507f5b1e95e30f5ac797875c3278de850ab1eb09c5950ef3c21ce500c32ece084251818733604051610c5393929190612a49565b60405180910390a1610c6586826115b1565b610c6d610f41565b80915050949350505050565b6000600c6000838152602001908152602001600020600001549050919050565b610caa610ca461103e565b836110ff565b610ce9576040517f08c379a0000000000000000000000000000000000000000000000000000000008152600401610ce0906129ce565b60405180910390fd5b610cf58484848461178b565b50505050565b6060610d0682610fd2565b610d45576040517f08c379a0000000000000000000000000000000000000000000000000000000008152600401610d3c9061298e565b60405180910390fd5b6000610d4f6117e7565b90506000815111610d6f5760405180602001604052806000815250610d9a565b80610d79846117fe565b604051602001610d8a929190612746565b6040516020818303038152906040525b915050919050565b6000600560008473ffffffffffffffffffffffffffffffffffffffff1673ffffffffffffffffffffffffffffffffffffffff16815260200190815260200160002060008373ffffffffffffffffffffffffffffffffffffffff1673ffffffffffffffffffffffffffffffffffffffff16815260200190815260200160002060009054906101000a900460ff16905092915050565b600a60009054906101000a900473ffffffffffffffffffffffffffffffffffffffff1673ffffffffffffffffffffffffffffffffffffffff163373ffffffffffffffffffffffffffffffffffffffff161415610f3e57600073ffffffffffffffffffffffffffffffffffffffff168173ffffffffffffffffffffffffffffffffffffffff161415610efc576040517f08c379a0000000000000000000000000000000000000000000000000000000008152600401610ef390612a0e565b60405180910390fd5b80600a60006101000a81548173ffffffffffffffffffffffffffffffffffffffff021916908373ffffffffffffffffffffffffffffffffffffffff1602179055505b50565b6001600b54610f509190612b50565b600b81905550565b60007f780e9d63000000000000000000000000000000000000000000000000000000007bffffffffffffffffffffffffffffffffffffffffffffffffffffffff1916827bffffffffffffffffffffffffffffffffffffffffffffffffffffffff19161480610fcb5750610fca8261195f565b5b9050919050565b60008073ffffffffffffffffffffffffffffffffffffffff166002600084815260200190815260200160002060009054906101000a900473ffffffffffffffffffffffffffffffffffffffff1673ffffffffffffffffffffffffffffffffffffffff1614159050919050565b600033905090565b816004600083815260200190815260200160002060006101000a81548173ffffffffffffffffffffffffffffffffffffffff021916908373ffffffffffffffffffffffffffffffffffffffff160217905550808273ffffffffffffffffffffffffffffffffffffffff166110b983610960565b73ffffffffffffffffffffffffffffffffffffffff167f8c5be1e5ebec7d5bd14f71427d1e84f3dd0314c0f7b2291e5b200ac8c7c3b92560405160405180910390a45050565b600061110a82610fd2565b611149576040517f08c379a0000000000000000000000000000000000000000000000000000000008152600401611140906128ce565b60405180910390fd5b600061115483610960565b90508073ffffffffffffffffffffffffffffffffffffffff168473ffffffffffffffffffffffffffffffffffffffff16148061119657506111958185610da2565b5b806111d457508373ffffffffffffffffffffffffffffffffffffffff166111bc846105d6565b73ffffffffffffffffffffffffffffffffffffffff16145b91505092915050565b8273ffffffffffffffffffffffffffffffffffffffff166111fd82610960565b73ffffffffffffffffffffffffffffffffffffffff1614611253576040517f08c379a000000000000000000000000000000000000000000000000000000000815260040161124a9061284e565b60405180910390fd5b600073ffffffffffffffffffffffffffffffffffffffff168273ffffffffffffffffffffffffffffffffffffffff1614156112c3576040517f08c379a00000000000000000000000000000000000000000000000000000000081526004016112ba9061288e565b60405180910390fd5b6112ce838383611a41565b6112d9600082611046565b6001600360008573ffffffffffffffffffffffffffffffffffffffff1673ffffffffffffffffffffffffffffffffffffffff16815260200190815260200160002060008282546113299190612bd7565b925050819055506001600360008473ffffffffffffffffffffffffffffffffffffffff1673ffffffffffffffffffffffffffffffffffffffff16815260200190815260200160002060008282546113809190612b50565b92505081905550816002600083815260200190815260200160002060006101000a81548173ffffffffffffffffffffffffffffffffffffffff021916908373ffffffffffffffffffffffffffffffffffffffff160217905550808273ffffffffffffffffffffffffffffffffffffffff168473ffffffffffffffffffffffffffffffffffffffff167fddf252ad1be2c89b69c2b068fc378daa952ba7f163c4a11628f55a4df523b3ef60405160405180910390a461143f838383611a51565b505050565b8173ffffffffffffffffffffffffffffffffffffffff168373ffffffffffffffffffffffffffffffffffffffff1614156114b3576040517f08c379a00000000000000000000000000000000000000000000000000000000081526004016114aa906128ae565b60405180910390fd5b80600560008573ffffffffffffffffffffffffffffffffffffffff1673ffffffffffffffffffffffffffffffffffffffff16815260200190815260200160002060008473ffffffffffffffffffffffffffffffffffffffff1673ffffffffffffffffffffffffffffffffffffffff16815260200190815260200160002060006101000a81548160ff0219169083151502179055508173ffffffffffffffffffffffffffffffffffffffff168373ffffffffffffffffffffffffffffffffffffffff167f17307eab39ab6107e8899845ad3d59bd9653f200f220920489ca2b5937696c31836040516115a491906127d1565b60405180910390a3505050565b600073ffffffffffffffffffffffffffffffffffffffff168273ffffffffffffffffffffffffffffffffffffffff161415611621576040517f08c379a00000000000000000000000000000000000000000000000000000000081526004016116189061294e565b60405180910390fd5b61162a81610fd2565b1561166a576040517f08c379a00000000000000000000000000000000000000000000000000000000081526004016116619061286e565b60405180910390fd5b61167660008383611a41565b6001600360008473ffffffffffffffffffffffffffffffffffffffff1673ffffffffffffffffffffffffffffffffffffffff16815260200190815260200160002060008282546116c69190612b50565b92505081905550816002600083815260200190815260200160002060006101000a81548173ffffffffffffffffffffffffffffffffffffffff021916908373ffffffffffffffffffffffffffffffffffffffff160217905550808273ffffffffffffffffffffffffffffffffffffffff16600073ffffffffffffffffffffffffffffffffffffffff167fddf252ad1be2c89b69c2b068fc378daa952ba7f163c4a11628f55a4df523b3ef60405160405180910390a461178760008383611a51565b5050565b6117968484846111dd565b6117a284848484611a56565b6117e1576040517f08c379a00000000000000000000000000000000000000000000000000000000081526004016117d89061282e565b60405180910390fd5b50505050565b606060405180602001604052806000815250905090565b60606000821415611846576040518060400160405280600181526020017f3000000000000000000000000000000000000000000000000000000000000000815250905061195a565b600082905060005b6000821461187857808061186190612d24565b915050600a826118719190612ba6565b915061184e565b60008167ffffffffffffffff81111561189457611893612e89565b5b6040519080825280601f01601f1916602001820160405280156118c65781602001600182028036833780820191505090505b5090505b60008514611953576001826118df9190612bd7565b9150600a856118ee9190612d6d565b60306118fa9190612b50565b60f81b8183815181106119105761190f612e5a565b5b60200101907effffffffffffffffffffffffffffffffffffffffffffffffffffffffffffff1916908160001a905350600a8561194c9190612ba6565b94506118ca565b8093505050505b919050565b60007f80ac58cd000000000000000000000000000000000000000000000000000000007bffffffffffffffffffffffffffffffffffffffffffffffffffffffff1916827bffffffffffffffffffffffffffffffffffffffffffffffffffffffff19161480611a2a57507f5b5e139f000000000000000000000000000000000000000000000000000000007bffffffffffffffffffffffffffffffffffffffffffffffffffffffff1916827bffffffffffffffffffffffffffffffffffffffffffffffffffffffff1916145b80611a3a5750611a3982611bed565b5b9050919050565b611a4c838383611c57565b505050565b505050565b6000611a778473ffffffffffffffffffffffffffffffffffffffff16611d6b565b15611be0578373ffffffffffffffffffffffffffffffffffffffff1663150b7a02611aa061103e565b8786866040518563ffffffff1660e01b8152600401611ac29493929190612785565b602060405180830381600087803b158015611adc57600080fd5b505af1925050508015611b0d57506040513d601f19601f82011682018060405250810190611b0a91906123c9565b60015b611b90573d8060008114611b3d576040519150601f19603f3d011682016040523d82523d6000602084013e611b42565b606091505b50600081511415611b88576040517f08c379a0000000000000000000000000000000000000000000000000000000008152600401611b7f9061282e565b60405180910390fd5b805181602001fd5b63150b7a0260e01b7bffffffffffffffffffffffffffffffffffffffffffffffffffffffff1916817bffffffffffffffffffffffffffffffffffffffffffffffffffffffff191614915050611be5565b600190505b949350505050565b60007f01ffc9a7000000000000000000000000000000000000000000000000000000007bffffffffffffffffffffffffffffffffffffffffffffffffffffffff1916827bffffffffffffffffffffffffffffffffffffffffffffffffffffffff1916149050919050565b611c62838383611d8e565b600073ffffffffffffffffffffffffffffffffffffffff168373ffffffffffffffffffffffffffffffffffffffff161415611ca557611ca081611d93565b611ce4565b8173ffffffffffffffffffffffffffffffffffffffff168373ffffffffffffffffffffffffffffffffffffffff1614611ce357611ce28382611ddc565b5b5b600073ffffffffffffffffffffffffffffffffffffffff168273ffffffffffffffffffffffffffffffffffffffff161415611d2757611d2281611f49565b611d66565b8273ffffffffffffffffffffffffffffffffffffffff168273ffffffffffffffffffffffffffffffffffffffff1614611d6557611d64828261201a565b5b5b505050565b6000808273ffffffffffffffffffffffffffffffffffffffff163b119050919050565b505050565b6008805490506009600083815260200190815260200160002081905550600881908060018154018082558091505060019003906000526020600020016000909190919091505550565b60006001611de984610a12565b611df39190612bd7565b9050600060076000848152602001908152602001600020549050818114611ed8576000600660008673ffffffffffffffffffffffffffffffffffffffff1673ffffffffffffffffffffffffffffffffffffffff168152602001908152602001600020600084815260200190815260200160002054905080600660008773ffffffffffffffffffffffffffffffffffffffff1673ffffffffffffffffffffffffffffffffffffffff168152602001908152602001600020600084815260200190815260200160002081905550816007600083815260200190815260200160002081905550505b6007600084815260200190815260200160002060009055600660008573ffffffffffffffffffffffffffffffffffffffff1673ffffffffffffffffffffffffffffffffffffffff16815260200190815260200160002060008381526020019081526020016000206000905550505050565b60006001600880549050611f5d9190612bd7565b9050600060096000848152602001908152602001600020549050600060088381548110611f8d57611f8c612e5a565b5b906000526020600020015490508060088381548110611faf57611fae612e5a565b5b906000526020600020018190555081600960008381526020019081526020016000208190555060096000858152602001908152602001600020600090556008805480611ffe57611ffd612e2b565b5b6001900381819060005260206000200160009055905550505050565b600061202583610a12565b905081600660008573ffffffffffffffffffffffffffffffffffffffff1673ffffffffffffffffffffffffffffffffffffffff168152602001908152602001600020600083815260200190815260200160002081905550806007600084815260200190815260200160002081905550505050565b60006120ac6120a784612adc565b612ab7565b9050828152602081018484840111156120c8576120c7612ebd565b5b6120d3848285612c7f565b509392505050565b6000813590506120ea81613384565b92915050565b6000813590506120ff8161339b565b92915050565b600081359050612114816133b2565b92915050565b600081519050612129816133b2565b92915050565b600082601f83011261214457612143612eb8565b5b8135612154848260208601612099565b91505092915050565b60008135905061216c816133c9565b92915050565b60006020828403121561218857612187612ec7565b5b6000612196848285016120db565b91505092915050565b600080604083850312156121b6576121b5612ec7565b5b60006121c4858286016120db565b92505060206121d5858286016120db565b9150509250929050565b6000806000606084860312156121f8576121f7612ec7565b5b6000612206868287016120db565b9350506020612217868287016120db565b92505060406122288682870161215d565b9150509250925092565b6000806000806080858703121561224c5761224b612ec7565b5b600061225a878288016120db565b945050602061226b878288016120db565b935050604061227c8782880161215d565b925050606085013567ffffffffffffffff81111561229d5761229c612ec2565b5b6122a98782880161212f565b91505092959194509250565b600080604083850312156122cc576122cb612ec7565b5b60006122da858286016120db565b92505060206122eb858286016120f0565b9150509250929050565b6000806040838503121561230c5761230b612ec7565b5b600061231a858286016120db565b925050602061232b8582860161215d565b9150509250929050565b6000806000806080858703121561234f5761234e612ec7565b5b600061235d878288016120db565b945050602061236e8782880161215d565b935050604061237f8782880161215d565b92505060606123908782880161215d565b91505092959194509250565b6000602082840312156123b2576123b1612ec7565b5b60006123c084828501612105565b91505092915050565b6000602082840312156123df576123de612ec7565b5b60006123ed8482850161211a565b91505092915050565b60006020828403121561240c5761240b612ec7565b5b600061241a8482850161215d565b91505092915050565b61242c81612c0b565b82525050565b61243b81612c1d565b82525050565b600061244c82612b0d565b6124568185612b23565b9350612466818560208601612c8e565b61246f81612ecc565b840191505092915050565b600061248582612b18565b61248f8185612b34565b935061249f818560208601612c8e565b6124a881612ecc565b840191505092915050565b60006124be82612b18565b6124c88185612b45565b93506124d8818560208601612c8e565b80840191505092915050565b60006124f1602b83612b34565b91506124fc82612edd565b604082019050919050565b6000612514603283612b34565b915061251f82612f2c565b604082019050919050565b6000612537602583612b34565b915061254282612f7b565b604082019050919050565b600061255a601c83612b34565b915061256582612fca565b602082019050919050565b600061257d602483612b34565b915061258882612ff3565b604082019050919050565b60006125a0601983612b34565b91506125ab82613042565b602082019050919050565b60006125c3602c83612b34565b91506125ce8261306b565b604082019050919050565b60006125e6603883612b34565b91506125f1826130ba565b604082019050919050565b6000612609602a83612b34565b915061261482613109565b604082019050919050565b600061262c602983612b34565b915061263782613158565b604082019050919050565b600061264f602083612b34565b915061265a826131a7565b602082019050919050565b6000612672602c83612b34565b915061267d826131d0565b604082019050919050565b6000612695602f83612b34565b91506126a08261321f565b604082019050919050565b60006126b8602183612b34565b91506126c38261326e565b604082019050919050565b60006126db603183612b34565b91506126e6826132bd565b604082019050919050565b60006126fe602c83612b34565b91506127098261330c565b604082019050919050565b6000612721601283612b34565b915061272c8261335b565b602082019050919050565b61274081612c75565b82525050565b600061275282856124b3565b915061275e82846124b3565b91508190509392505050565b600060208201905061277f6000830184612423565b92915050565b600060808201905061279a6000830187612423565b6127a76020830186612423565b6127b46040830185612737565b81810360608301526127c68184612441565b905095945050505050565b60006020820190506127e66000830184612432565b92915050565b60006020820190508181036000830152612806818461247a565b905092915050565b60006020820190508181036000830152612827816124e4565b9050919050565b6000602082019050818103600083015261284781612507565b9050919050565b600060208201905081810360008301526128678161252a565b9050919050565b600060208201905081810360008301526128878161254d565b9050919050565b600060208201905081810360008301526128a781612570565b9050919050565b600060208201905081810360008301526128c781612593565b9050919050565b600060208201905081810360008301526128e7816125b6565b9050919050565b60006020820190508181036000830152612907816125d9565b9050919050565b60006020820190508181036000830152612927816125fc565b9050919050565b600060208201905081810360008301526129478161261f565b9050919050565b6000602082019050818103600083015261296781612642565b9050919050565b6000602082019050818103600083015261298781612665565b9050919050565b600060208201905081810360008301526129a781612688565b9050919050565b600060208201905081810360008301526129c7816126ab565b9050919050565b600060208201905081810360008301526129e7816126ce565b9050919050565b60006020820190508181036000830152612a07816126f1565b9050919050565b60006020820190508181036000830152612a2781612714565b9050919050565b6000602082019050612a436000830184612737565b92915050565b6000606082019050612a5e6000830186612737565b612a6b6020830185612423565b612a786040830184612423565b949350505050565b6000606082019050612a956000830186612737565b612aa26020830185612737565b612aaf6040830184612737565b949350505050565b6000612ac1612ad2565b9050612acd8282612cf3565b919050565b6000604051905090565b600067ffffffffffffffff821115612af757612af6612e89565b5b612b0082612ecc565b9050602081019050919050565b600081519050919050565b600081519050919050565b600082825260208201905092915050565b600082825260208201905092915050565b600081905092915050565b6000612b5b82612c75565b9150612b6683612c75565b9250827fffffffffffffffffffffffffffffffffffffffffffffffffffffffffffffffff03821115612b9b57612b9a612d9e565b5b828201905092915050565b6000612bb182612c75565b9150612bbc83612c75565b925082612bcc57612bcb612dcd565b5b828204905092915050565b6000612be282612c75565b9150612bed83612c75565b925082821015612c0057612bff612d9e565b5b828203905092915050565b6000612c1682612c55565b9050919050565b60008115159050919050565b60007fffffffff0000000000000000000000000000000000000000000000000000000082169050919050565b600073ffffffffffffffffffffffffffffffffffffffff82169050919050565b6000819050919050565b82818337600083830152505050565b60005b83811015612cac578082015181840152602081019050612c91565b83811115612cbb576000848401525b50505050565b60006002820490506001821680612cd957607f821691505b60208210811415612ced57612cec612dfc565b5b50919050565b612cfc82612ecc565b810181811067ffffffffffffffff82111715612d1b57612d1a612e89565b5b80604052505050565b6000612d2f82612c75565b91507fffffffffffffffffffffffffffffffffffffffffffffffffffffffffffffffff821415612d6257612d61612d9e565b5b600182019050919050565b6000612d7882612c75565b9150612d8383612c75565b925082612d9357612d92612dcd565b5b828206905092915050565b7f4e487b7100000000000000000000000000000000000000000000000000000000600052601160045260246000fd5b7f4e487b7100000000000000000000000000000000000000000000000000000000600052601260045260246000fd5b7f4e487b7100000000000000000000000000000000000000000000000000000000600052602260045260246000fd5b7f4e487b7100000000000000000000000000000000000000000000000000000000600052603160045260246000fd5b7f4e487b7100000000000000000000000000000000000000000000000000000000600052603260045260246000fd5b7f4e487b7100000000000000000000000000000000000000000000000000000000600052604160045260246000fd5b600080fd5b600080fd5b600080fd5b600080fd5b6000601f19601f8301169050919050565b7f455243373231456e756d657261626c653a206f776e657220696e646578206f7560008201527f74206f6620626f756e6473000000000000000000000000000000000000000000602082015250565b7f4552433732313a207472616e7366657220746f206e6f6e20455243373231526560008201527f63656976657220696d706c656d656e7465720000000000000000000000000000602082015250565b7f4552433732313a207472616e736665722066726f6d20696e636f72726563742060008201527f6f776e6572000000000000000000000000000000000000000000000000000000602082015250565b7f4552433732313a20746f6b656e20616c7265616479206d696e74656400000000600082015250565b7f4552433732313a207472616e7366657220746f20746865207a65726f2061646460008201527f7265737300000000000000000000000000000000000000000000000000000000602082015250565b7f4552433732313a20617070726f766520746f2063616c6c657200000000000000600082015250565b7f4552433732313a206f70657261746f7220717565727920666f72206e6f6e657860008201527f697374656e7420746f6b656e0000000000000000000000000000000000000000602082015250565b7f4552433732313a20617070726f76652063616c6c6572206973206e6f74206f7760008201527f6e6572206e6f7220617070726f76656420666f7220616c6c0000000000000000602082015250565b7f4552433732313a2062616c616e636520717565727920666f7220746865207a6560008201527f726f206164647265737300000000000000000000000000000000000000000000602082015250565b7f4552433732313a206f776e657220717565727920666f72206e6f6e657869737460008201527f656e7420746f6b656e0000000000000000000000000000000000000000000000602082015250565b7f4552433732313a206d696e7420746f20746865207a65726f2061646472657373600082015250565b7f4552433732313a20617070726f76656420717565727920666f72206e6f6e657860008201527f697374656e7420746f6b656e0000000000000000000000000000000000000000602082015250565b7f4552433732314d657461646174613a2055524920717565727920666f72206e6f60008201527f6e6578697374656e7420746f6b656e0000000000000000000000000000000000602082015250565b7f4552433732313a20617070726f76616c20746f2063757272656e74206f776e6560008201527f7200000000000000000000000000000000000000000000000000000000000000602082015250565b7f4552433732313a207472616e736665722063616c6c6572206973206e6f74206f60008201527f776e6572206e6f7220617070726f766564000000000000000000000000000000602082015250565b7f455243373231456e756d657261626c653a20676c6f62616c20696e646578206f60008201527f7574206f6620626f756e64730000000000000000000000000000000000000000602082015250565b7f496e636f72726563742061646472657373210000000000000000000000000000600082015250565b61338d81612c0b565b811461339857600080fd5b50565b6133a481612c1d565b81146133af57600080fd5b50565b6133bb81612c29565b81146133c657600080fd5b50565b6133d281612c75565b81146133dd57600080fd5b5056fea26469706673582212204cfc3355a092bdf19fa5174f65a9c5c1e487578f429c65d0c26bab767c2e503364736f6c63430008050033",
  "immutableReferences": {},
  "source": "///\n/// @title TFE Blockchain\n/// @author Iaki Balaguer Baeras\n/// @notice Blockchain-based drone plot fumigation system\n///\n\n// SPDX-License-Identifier: MIT\npragma solidity ^0.8.0;\n\nimport \"./Ownable.sol\";\nimport \"@openzeppelin/contracts/token/ERC721/ERC721.sol\";\nimport \"@openzeppelin/contracts/token/ERC721/extensions/ERC721Enumerable.sol\";\n\n///\n/// @notice ERC721 Token Plot Smart Contract\n///\ncontract PlotToken is ERC721, ERC721Enumerable, Ownable{ \n\n    struct attributesPlot {   \n        uint256 minimumHeightAllowed;\n        uint256 maximumHeightAllowed;\n        uint256 acceptedPesticide;\n    }\n    \n    uint256 private lastPlotTokenId = 1;\n    mapping(uint256 => attributesPlot) public plotList;\n \n    constructor(string memory name_, string memory symbol_) ERC721(name_, symbol_) Ownable() {\n\n    }\n\n    ///\n    /// @notice Create a new plot\n    ///\n    event mintPlote (uint256 plotId, address to, address me);\n    function mint(address _owner, uint256 _minimumHeightAllowed, uint256 _maximumHeightAllowed, uint256 _acceptedPesticide)  public returns (uint256 result)     {\n        uint256 plotId = getLastPlotTokenId();\n\n        plotList[plotId].minimumHeightAllowed = _minimumHeightAllowed;\n        plotList[plotId].maximumHeightAllowed = _maximumHeightAllowed;\n        plotList[plotId].acceptedPesticide = _acceptedPesticide;\n\n        emit mintPlote(plotId, _owner, msg.sender); \n        super._mint(_owner, plotId);             \n        setLastPlotTokenId(); \n\n        return plotId;\n    }\n\n    ///\n    /// @notice Additional functions\n    ///\n    function setLastPlotTokenId() public {\n       lastPlotTokenId = lastPlotTokenId + 1;\n    }\n\n    function getLastPlotTokenId() public view returns (uint256) {\n        return lastPlotTokenId;\n    }\n\n    function getMinimumHeightAllowed(uint256 plotId) public view returns (uint256) {\n        return (plotList[plotId].minimumHeightAllowed);\n    }\n\n    function getMaximumHeightAllowed(uint256 plotId) public view returns (uint256) {\n        return (plotList[plotId].maximumHeightAllowed);\n    }\n\n    function getAcceptedPesticide(uint256 plotId) public view returns (uint256 acceptedPesticide) {\n        return (plotList[plotId].acceptedPesticide);\n    }\n\n    function _beforeTokenTransfer(address from, address to, uint256 tokenId) internal override(ERC721, ERC721Enumerable){ \n        super._beforeTokenTransfer(from, to, tokenId);\n    }\n\n    function supportsInterface(bytes4 interfaceId) public view override(ERC721, ERC721Enumerable) returns (bool) {\n        return super.supportsInterface(interfaceId);\n    }\n}",
  "sourcePath": "/home/ubuntu/tfe-blockchain/contracts/PlotToken.sol",
  "compiler": {
    "name": "solc",
    "version": "0.8.5+commit.a4f2e591.Emscripten.clang"
  },
  "schemaVersion": "3.4.7",
  "updatedAt": "2022-07-04T18:31:10.903Z",
  "networkType": "ethereum",
  "devdoc": {
    "kind": "dev",
    "methods": {
      "approve(address,uint256)": {
        "details": "See {IERC721-approve}."
      },
      "balanceOf(address)": {
        "details": "See {IERC721-balanceOf}."
      },
      "getApproved(uint256)": {
        "details": "See {IERC721-getApproved}."
      },
      "isApprovedForAll(address,address)": {
        "details": "See {IERC721-isApprovedForAll}."
      },
      "name()": {
        "details": "See {IERC721Metadata-name}."
      },
      "ownerOf(uint256)": {
        "details": "See {IERC721-ownerOf}."
      },
      "safeTransferFrom(address,address,uint256)": {
        "details": "See {IERC721-safeTransferFrom}."
      },
      "safeTransferFrom(address,address,uint256,bytes)": {
        "details": "See {IERC721-safeTransferFrom}."
      },
      "setApprovalForAll(address,bool)": {
        "details": "See {IERC721-setApprovalForAll}."
      },
      "symbol()": {
        "details": "See {IERC721Metadata-symbol}."
      },
      "tokenByIndex(uint256)": {
        "details": "See {IERC721Enumerable-tokenByIndex}."
      },
      "tokenOfOwnerByIndex(address,uint256)": {
        "details": "See {IERC721Enumerable-tokenOfOwnerByIndex}."
      },
      "tokenURI(uint256)": {
        "details": "See {IERC721Metadata-tokenURI}."
      },
      "totalSupply()": {
        "details": "See {IERC721Enumerable-totalSupply}."
      },
      "transferFrom(address,address,uint256)": {
        "details": "See {IERC721-transferFrom}."
      }
    },
    "version": 1
  },
  "userdoc": {
    "events": {
      "mintPlote(uint256,address,address)": {
        "notice": "Create a new plot"
      }
    },
    "kind": "user",
    "methods": {
      "setLastPlotTokenId()": {
        "notice": "Additional functions"
      }
    },
    "notice": "ERC721 Token Plot Smart Contract",
    "version": 1
  }
}